:400000000010002011000000910200009102000080B500AF00F040F980B500AF0D4B0D4A12688021C9020A431A60182000F0D6FC084B084A126808490A401A60074B084A3A
:400040001A60084B802212061A60074B00221A60BD4680BD00010B40FFFFFBFF04010B400600008008010B400C020B4080B582B000AF72B6FB1D00221A7023E0FB1D1A78DB
:40008000131C5B009B185B00274A9B183B603B681A78597809020A43997809040A43DB781B061343191C3B681A795B791B0213439BB2081C191C00F06DF9FB1D1A78FB1DE6
:4000C00001321A70FB1D1B78012BD7D9174BEE2212021A60164B992212041A60154A154B1B78DBB202210B43DBB21370124A124B1B78DBB23C218B43DBB214210B43DBB20F
:4001000013700C4A0B4B1B78DBB216210B43DBB213700A4BD82212011A60FFF77DFF00F049F9BD4602B080BDE00E00000C00014030500F4000700F4001700F400803044091
:4001400010B5064C2378002B07D1054B002B02D0044800E000BF0123237010BDE0000020000000009C0E000008B5084B002B03D00748084900E000BF07480368002B00D161
:4001800008BD064B002BFBD09847F9E7000000009C0E0000E4000020C80000200000000080B588B000AF0823FA18344B111C1A1C0E23081C111C1A1C00F05EFE002001215D
:4001C00000F0BCF900F0FAF82D4B181C00F00EFA00F052FA2B4B1B78DBB2462B1CD1294B181C0E2100F02EFA00F046FA0823FA18244B101C191C0E2200F0E4F8031CFB6101
:4002000000F03AFAFB69002B36D01F4B181C00F0EDF900F031FAFEE71C4BBB61BB691B78DAB2FB1D1A70FB1D1B780133DAB2FB1D1A70FB1D1B78392B02D9FB1D30221A703E
:40024000FA1D124B101C191C012200F0BBF8031CFB610C4B181C0E2100F0F4F900F00CFA00F00AFAFB69002B06D0074B181C00F0BDF900F001FAFEE7FEE7C046C00E0000CD
:40028000A00E0000D00E0000B00E0000DC0E000080B500AFFEE7C04680B586B000AF224B7B61224B3B61204B7B6135E03B691B68FB603B695B68BB603B699B683B6000230A
:4002C0007B600CE0FB681A68BB681A60BB680433BB60FB680433FB607B6804337B607A683B689A42EED13B69DB683B6000237B6008E0BB6800221A60BB680433BB607B68B7
:4003000004337B607A683B689A42F2D13B6910333B617B69013B7B617B69002BC6D100F085FDFFF73DFFFEE701000000400F000080B582B000AF00237B600FE07B68032B75
:4003400004D8104B7A689200D35800E00E4B0F4A796889008B507B6801337B607B682F2BECD9FFF783FE0A4B00221A608023DB058022D205126801210A431A60BD4602B060
:4003800080BDC046000000009102000000000020C000002080B582B000AF786039607A683B68101C00211A1C00F06FFDBD4602B080BDC04680B500AFBD4680BD80B500AF7C
:4003C000BD4680BD80B5ACB000AFF860B9607A60BB689822BA181360BA687B68D318564A934200D98DE09823FB181B68DB0B9422BA1813609823FB181B68DB09FF2213408A
:40040000AC22BA1813609423FB181B681A02AC23FB181B68D318DB019C22BA1813600023A422BA1813600023A022BA1813605CE00023A822BA1813603EE09C23FB181A68D9
:400440009823FB181B689A421BD3A423FB181A687B689A4215D2FA68A423FB181B68D31819781423FA18A823FB181B68D3180A1C1A70A423FB181B680133A422BA18136043
:400480000CE09C23FB181B681B78D9B21423FA18A823FB181B68D3180A1C1A709C23FB181B6801339C22BA181360A823FB181B680133A822BA181360A823FB181B687F2B5D
:4004C000BBD9AC23FB181A681423FB18101C191C00F0DCF8031CA022BA181360AC23FB181B680133AC22BA181360A423FB181A687B689A4209D2A023FB181B68002B97D0E2
:4005000003E00123A022BA181360A023FB181B68002B09D0A023FB181B68012B04D001235B42A022BA181360A023FB181B68181CBD462CB080BDC046FF7F000080B584B099
:4005400000AF021CFB1D1A70BB1D0A1C1A70BB1D1B78072B3ED8FB1D1B78042B3AD8FB1D1B781E4A944663441B020833FB60FA68FB681868BB1D19780B1C5B005B18191CC6
:4005800007238B40DB431840BB1D19780B1C5B005B18191C06238B4003431360FB1D1B780E4A944663441B02BB60BB68BA681168BA1D127801209040021C0A431A60084B8C
:4005C000BA681A60BB1D1A78064B1A60FB1D1A78054B1A60BD4604B080BDC0460004400004010020080100200001002080B584B000AF78600F23FB1801221A700E23FB18E3
:400600007A6812781A7015E00E23FB181B78181C00F0F6FA0F23FB181B787A68D2180E23FB1812781A700F23FB181A780F23FB1801321A700E23FB181B78002BE4D1BD4655
:4006400004B080BD80B584B000AF786039600023FB6009E07A68FB68D3181B78181C00F0CFFAFB680133FB60FA683B689A42F1D3BD4604B080BDC04680B500AF0D2000F057
:40068000BFFA0A2000F0BCFABD4680BD90B5AFB000AF7860396000239422BA18136000239022BA1813600023A022BA1813600023B422BA1813600023B022BA1813600023B0
:4006C000AC22BA1813600023A822BA1813607B68FF2B00D943E13B68002B00D13FE10823FB1808331A1C3B68101C191C802200F0C3FB0223A422BA1813602FE00823FB186C
:40070000A422BA1812689200D3589C22BA1813609C23FB181B68002B19D0AC23FB181A689C23FB181B68D318AC22BA181360A823FB181A689C23FB181B681343A822BA1820
:400740001360A423FB181B68B422BA181360A423FB181B680133A422BA181360A423FB181B68212BCAD9AC23FB181B68002B06D1A823FB181B68002B01D0012300E00023BB
:40078000A022BA181360A023FB181B68002B11D00823FB18B422BA1812689200D358B022BA1813600823FB18B422BA18126892000021D1500823FB186E4A1A600823FB18B7
:4007C0007F225A606C4B0822BA181A606B4B6C4A1A60694B1B681B0F1A07A0231B069A4204D0654B1B680F22134000E000239422BA1813609423FB181B68002B00D0ADE0EB
:400800009B23FC1800F076FA031C237000F0C2F8031C9022BA1813609423FB181B68002B24D10823FB18574A1A600823FB181A687B681B041A430823FB181A604E4B0822B4
:40084000BA181A604D4B504A1A604B4B1B681B0F1A07A0231B069A4204D0474B1B680F22134000E000239422BA1813609423FB181B68002B60D1A023FB181B68002B5BD099
:400880000823FB180833181C0021802200F0FDFA0823FB18B422BA1812689200B02179180968D1500823FB18324A1A600823FB187F225A60304B0822BA181A602F4B304A49
:4008C0001A602D4B1B681B0F1A07A0231B069A4204D0294B1B680F22134000E000239422BA1813609423FB181B68002B24D10823FB18264A1A600823FB181A687B681B04D4
:400900001A430823FB181A601B4B0822BA181A601A4B1F4A1A60184B1B681B0F1A07A0231B069A4204D0144B1B680F22134000E000239422BA1813609023FB181B68002BE1
:4009400005D100F039F8031C9022BA1813609B23FB181B78181C00F0D1F904E003E004239422BA1813609423FB181B68181CBD462FB090BDB6D70000080000400400004066
:4009800004000080B6D8000005000080B6D900000600008080B582B000AF00237B60044B1A68044B1A607B68181CBD4602B080BD08010B40FC00002080B582B000AF00232B
:4009C0007B60044A044B1B6813607B68181CBD4602B080BD08010B40FC00002090B585B000AF78600C23FC1800F084F9031C23707B68022B00D8B0E07B68302B00D9ACE092
:400A00005C4B1B78DBB21A1E7B689A420AD35A4A0F23FB1812781A70584A0E23FB1812781A703FE0564B1B78DBB21A1E7B689A420AD3544A0F23FB1812781A70524A0E23AC
:400A4000FB1812781A702DE0504B1B78DBB21A1E7B689A420AD34E4A0F23FB1812781A704C4A0E23FB1812781A701BE04A4B1B78DBB21A1E7B689A420AD3484A0F23FB1879
:400A800012781A70464A0E23FB1812781A7009E0444A0F23FB1812781A70434A0E23FB1812781A707B68DA1E0B23FB183F498A5C1A700B23FB181B782F2B0DD97B682A2B25
:400AC0000AD93B4B19221A60052000F009F90D23FB1819221A7007E0354B1B68DAB20D23FB183F210A401A700B23FA180D23FB1812781B789A4208D22D4B7A68033A2B496B
:400B00008A5C1A60052000F0EBF82A4B7A6826498C4662441278D2B21A60274B0F22BA1812781A60254B0E22BA1812781A60052000F050F80B23FA180D23FB1812781B78AB
:400B40009A4209D91A4B7A68033A18498A5C1A60052000F0C5F803E002E0002000F030F80C23FB181B78181C00F0C8F8BD4605B090BDC046C0F1FF0FC1F1FF0FC2F1FF0F9F
:400B8000C3F1FF0FC4F1FF0FC5F1FF0FC6F1FF0FC7F1FF0FC8F1FF0FC9F1FF0FCAF1FF0FCBF1FF0FCCF1FF0FCDF1FF0FEC0E00002CFF0B4028FF0B401CFF0B4020FF0B40F6
:400BC00080B582B000AF021CFB1D1A7001BEBD4602B080BD80B582B000AF021CBB1D1A80BB1D1B88044A12785343181C00F078F8BD4602B080BDC046D4000020000000005F
:400C0000FEB5494652465B460EB407462E4909688A462E4A12682E48022100F075F803002A480068C0182A4900F06EF806001F3EB346234A126801219140C9430C00012598
:400C4000002600F057F8814651460B6823400B605846043000F044F83800F040284090400B68234003430B60584600F039F80136072EF1D900200130012090400B6823403E
:400C800003430B605846063000F02AF8484600F035F8C046C046C0460EBC894692469B46FEBDC046C046C046C046C046C046C046C046C046C046C046C046C046C046C04679
:400CC000080100200001002004010020CC00002000C20100C046C046C046C046C046C0460230800804D0C0460138FDD1C046C046C0467047EFF3108072B6704780F31088F2
:400D00007047C046C046C046002243088B4274D303098B425FD3030A8B4244D3030B8B4228D3030C8B420DD3FF22090212BA030C8B4202D31212090265D0030B8B4219D307
:400D400000E0090AC30B8B4201D3CB03C01A5241830B8B4201D38B03C01A5241430B8B4201D34B03C01A5241030B8B4201D30B03C01A5241C30A8B4201D3CB02C01A524130
:400D8000830A8B4201D38B02C01A5241430A8B4201D34B02C01A5241030A8B4201D30B02C01A5241CDD2C3098B4201D3CB01C01A524183098B4201D38B01C01A5241430984
:400DC0008B4201D34B01C01A524103098B4201D30B01C01A5241C3088B4201D3CB00C01A524183088B4201D38B00C01A524143088B4201D34B00C01A5241411A00D2014693
:400E0000524110467047FFE701B5002000F00CF802BDC0460029F7D003B5FFF775FF0EBC4243891A1847C0467047C0460E4B70B500251E1C0D4CE41AA410A54204D0AB0029
:400E4000F35898470135F8E700F068F8084B00251E1C084CE41AA410A54204D0AB00F35898470135F8E770BD280F0000280F0000280F0000300F0000002310B5934203D0E5
:400E8000CC5CC4540133F9E710BD031C8218934202D019700133FAE77047000000000000456D20454550524F4D2064656D6F0000456D20454550524F4D206572726F720019
:400EC000506F7765724379636C6523203000000046697273742072756E0000000000000000300F40000400400F400004030405060708090A0B0C0E0F1011121314151617EB
:400F000018191B1C1D1E1F2021222325262728292A2B2E2F3031323334350000F8B5C046F8BC08BC9E4670476901000031030000F8B5C046F8BC08BC9E4670474101000059
:400F4000500F0000C800002018000000300000000000000000366E01C05D0000180000000000E02E00000000000000000000000000000000000000000000000000000000FA
:400F80000000000000000000000000000000000000000000000000000000000000000000000000000000000000000000000000000000000000000000000000000000000031
:400FC00000000000000000000000000000000000000000000000000000000000000000000000000000000000000000000000000000000000000000000000000000000000F1
:4010000000000000000000000000000000000000000000000000000000000000000000000000000000000000000000000000000000000000000000000000000000000000B0
:401040000000000000000000000000000000000000000000000000000000000000000000000000000000000000000000000000000000000000000000000000000000000070
:0200000490303A
:020000003BD9EA
:0200000490402A
:200000000000000000000000000000000000000000000000000000000000000000000000E0
:0200000490501A
:0C000000000204C81193110104CD4D6CE6
:0200000490600A
:0100000001FE
:00000001FF