:10000000022141008F828E83E0540100000070F8CD
:100010002278FFE4F6D8FD02219F900117E4F07BDF
:10002000007A00790090011A121016900068E4F02E
:10003000A3E4F0906000E0FFEF5480FF7E00EF64E7
:10004000804E60030202FE906001E0FFEF12104B51
:1000500002200000600602AF0802CF0A0000051C63
:10006000906003E0FFEFB40135122DE590011FEE23
:10007000F0A3EFF090011FE0FEA3E0FF8F828E83DC
:10008000A312101F90006A121016900068E4F0A3EB
:100090007412F012292C900117EFF002051C9060E9
:1000A00003E0FFEF6402707A906002E0FF122682A4
:1000B00090011FEEF0A3EFF090011FE0FEA3E0FF20
:1000C000EF4E700302051C90011FE0FEA3E0FF8FBE
:1000D000828E83A312101F90006A12101690006A7D
:1000E00012100DE92403F9EA3400FA120DAAFF7E7A
:1000F00000EF7F00FE90006A12100DE92402F9EA79
:100100003400FA120DAAFD7C00EE4CFEEF4DFF907C
:100110000068EEF0A3EFF012292C900117EFF00227
:10012000051C906003E0FFEF64036003020215907A
:10013000011DE4F07BFF7A30799D90011A121016B0
:1001400090011DE0FF906002E0FEEED39F403D90E5
:10015000011A12100D120DAAFFEF603090011A1251
:10016000100D120DAAFF90011EEFF090011A12104F
:100170000D90011EE0FF7E00E92FF9EA3EFA9001A2
:100180001A12101690011DE004F080B4906002E095
:10019000FFEFB4EE0C7BFF7A31799090011A1210C8
:1001A00016906002E0FFEF6031903079E493FF90A9
:1001B0006002E0FEEEB5072290017BE0FFEF600EEB
:1001C00090017C12100D90011A121016800C7BFF0A
:1001D0007A3079DA90011A12101690011A12100D65
:1001E000120DAAFFEF700302051C90011A12100DE8
:1001F000120DAAFF7E00900068EEF0A3EFF09001D0
:100200001A12100D90006A12101612292C90011764
:10021000EFF002051C1227A6900117EFF002051C53
:10022000906000E0FFEF5403FFEF12104B027A00E2
:100230000237020000051C900068E4F0A37402F08D
:10024000906004E0FFEF547FFFEF75F00BA42406ED
:10025000F582E43400F583E0FF900179EFF090013E
:100260007AE4F07B017A01797990006A1210161213
:10027000292C900117EFF002051C900068E4F0A310
:100280007402F090007BE0FF900179EFF090017A2A
:10029000E4F07B017A01797990006A121016122934
:1002A0002C900117EFF002051C02051C02051C90A2
:1002B0000068E4F0A37401F07B017A00797C90007F
:1002C0006A12101612292C900117EFF002051C90EB
:1002D0000068E4F0A37401F0906004E0FF74672FFD
:1002E000F9E43400FA7B0190006A12101612292CEE
:1002F000900117EFF002051C02051C02051C90601E
:1003000001E0FFEF12104B03FA01049503031A05F5
:10031000032F0903A70B0000051C906002E0FF906B
:100320000076EFF0122F91900117EFF002051C906C
:100330006002E0FF900119EFF0900119E0FFEFD3A8
:1003400094004013900119E0FFEF14FF12268290F1
:10035000011FEEF0A3EFF0900119E0FFEFD394003E
:10036000400C90011FE0FEA3E0FFEF4E700B9001E8
:1003700019E0FFEF600302051C90007CE0FF900194
:1003800019E0FEEE6F6015900119E0FF90007CEF20
:10039000F09000747401F07F01120522122F9190E9
:1003A0000117EFF002051C122540EF700302051C37
:1003B000906004E0FF900118EFF0900118E0FF90CA
:1003C0000070EFF09000747401F01209C8900118E9
:1003D000E0FF74672FF582E43400F583E0FF9001BD
:1003E00018E0FE74752EF582E43400F583EFF01208
:1003F0002F91900117EFF002051C906000E0FFEFD5
:100400005403FFEF12104B042A000450010414029D
:100410000000051C906002E0FFEF600302051C1263
:1004200018E9900117EFF002051C906002E0FFEF61
:100430006401600302051C90007BE0FFEF54FDFFA8
:1004400090007BEFF0122F91900117EFF002051C46
:10045000906004E0FFEFC39401400302051C90602C
:1004600004E0FF74772FF582E43400F583C083C085
:1004700082E0FF906002E0FEEEF4FEEF5EFFD082CD
:10048000D083EFF0122F91900117EFF002051C02BC
:10049000051C02051C906000E0FFEF5403FFEF1203
:1004A000104B04C10004E30104AF020000051C90DE
:1004B0006002E0FFEF7065121F59900117EFF080A6
:1004C0005B906002E0FFEF6401705190007BE0FF01
:1004D000EF4402FF90007BEFF0122F91900117EF95
:1004E000F08039906004E0FFEFC39401502E9060DB
:1004F00004E0FF74772FF582E43400F583C083C0F5
:1005000082E0FF906002E0FEEEF4FEEF5EFFD0823C
:10051000D083EFF0122F91900117EFF0900117E0C8
:10052000FF229000F1EFF09000F9E4F0A3E4F090E6
:1005300000F2E4F09000F2E0FFEFC3940940030200
:1005400005E19000F2E0FFEF75F00BA42404F582C2
:10055000E43400F583E4F09000F2E0FFEF75F00B77
:10056000A42406F582E43400F583E4F09000F2E080
:10057000FFEF75F00BA42405F582E43400F583E465
:10058000F09000F2E0FFEF75F00BA42407F582E491
:100590003400F583E4F09000F2E0FFEF75F00BA477
:1005A0002409F582E43400F583E4F09000F2E0FFE2
:1005B000EF75F00BA4240CF582E43400F583E4F02D
:1005C000A3E4F09000F2E0FFEF75F00BA4240EF529
:1005D00082E43400F583E4F09000F2E004F00205D8
:1005E000349000F1E0FFEF603A9000F4E4F0900006
:1005F000F4E0FFEFC39401502A9000F4E0FF746729
:100600002FF582E43400F583E4F09000F4E0FF7409
:10061000752FF582E43400F583E4F09000F4E004F3
:10062000F080CB90007CE0FFEFD3940050030209F0
:10063000C790007CE0FFEF14FF1226829000FBEED3
:10064000F0A3EFF09000FBE0FEA3E0FF8F828E832B
:10065000A312101F9000F61210169000F612100D43
:10066000E92407F9EA3400FA120DAAFFEF5440FF1B
:100670007E00EF4E601090007BE0FFEF4401FF90A2
:10068000007BEFF0800E90007BE0FFEF54FEFF90C8
:10069000007BEFF09000FBE0FEA3E0FFEF2404FFFF
:1006A000EE3400FE9000FBEEF0A3EFF09000FBE0D4
:1006B000FEA3E0FF8F828E83E493FF9000F2EFF0C1
:1006C0009000F47401F09000F4E0FFEFC39409404F
:1006D000030208DC9000FBE0FEA3E0FF8F828E8324
:1006E000A312101FAE02AF019000FDEEF0A3EFF0D9
:1006F0009000F3E4F09000F2E0FF9000F3E0FEEEF3
:10070000C39F40030208D39000FDE0FEA3E0FF8FEB
:10071000828E83740293FFEF547FFF7E009000F47B
:10072000E0FD7C00ED6F7002EC6E60030208B29099
:1007300000FDE0FEA3E0FF8F828E83740493FE74BD
:100740000593FF9000F4E0FDED75F00BA4240CF58B
:1007500082E43400F583E0FCA3E0FDC3ED9FEC9E52
:10076000502C9000FDE0FEA3E0FF8F828E83740486
:1007700093FE740593FF9000F4E0FDED75F00BA47B
:10078000240CF582E43400F583EEF0A3EFF0900042
:10079000FDE0FEA3E0FF8F828E83E493FF74672F5A
:1007A000F582E43400F583E0FF9000FDE0FCA3E077
:1007B000FD8D828C83740193FEEF6E60030208B29C
:1007C0009000FDE0FEA3E0FF8F828E83740393FF11
:1007D000EF5403FF9000F5EFF09000FDE0FEA3E082
:1007E000FF8F828E83740293FFEF5480FF7E00EFB1
:1007F0004E603C9000F4E0FFEF75F00BA42405F58B
:1008000082E43400F5837401F09000F5E0FFEFB46A
:1008100001047F0780027F0D9000F4E0FEEE75F08A
:100820000BA42409F582E43400F583EFF0803990BD
:1008300000F4E0FFEF75F00BA42405F582E434002A
:10084000F583E4F09000F5E0FFEFB401047F05804C
:10085000027F099000F4E0FEEE75F00BA42409F588
:1008600082E43400F583EFF09000FDE0FEA3E0FFAA
:100870008F828E83740293FF9000F4E0FEEE75F099
:100880000BA42408F582E43400F583EFF09000FD1A
:10089000E0FEA3E0FF8F828E83740393FF9000F449
:1008A000E0FEEE75F00BA42404F582E43400F58339
:1008B000EFF09000FDE0FEA3E0FFEF2407FFEE3431
:1008C00000FE9000FDEEF0A3EFF09000F3E004F0E6
:1008D0000206F59000F4E004F00206C69000FBE08A
:1008E000FEA3E0FF8F828E83A312101FAE02AF0122
:1008F0009000FDEEF0A3EFF09000F4E4F09000F231
:10090000E0FF9000F4E0FEEEC39F50539000FDE046
:10091000FEA3E0FF8F828E83E493FF9000FDE0FC56
:10092000A3E0FD8D828C83740293FEEE547FFEEE75
:1009300075F00BA4240EF582E43400F583EFF090FB
:1009400000FDE0FEA3E0FFEF2407FFEE3400FE9081
:1009500000FDEEF0A3EFF09000F4E004F0809E12B2
:1009600025E3900072EEF0A3EFF09000F27401F036
:100970009000F2E0FFEFC3940950499000F9E0FEC7
:10098000A3E0FF9000F2E0FDED75F00BA4240AF562
:1009900082E43400F583EEF0A3EFF09000F2E0FF84
:1009A000EF75F00BA4240CF582E43400F583E0FE2F
:1009B000A3E0FF9000F9EE8FF0120DD59000F2E069
:1009C00004F080AC12136A2290007CE0FFEFD39415
:1009D000005003020DA990007CE0FFEF14FF1226E7
:1009E00082900126EEF0A3EFF0900126E0FEA3E056
:1009F000FFEF2404FFEE3400FE900126EEF0A3EF9B
:100A0000F0900126E0FEA3E0FF8F828E83E493FF47
:100A1000900121EFF0900126E0FEA3E0FF8F828E8F
:100A200083A312101FAE02AF01900128EEF0A3EFD6
:100A3000F0900123E4F0900121E0FF900123E0FE1B
:100A4000EEC39F4003020DA9900128E0FEA3E0FF42
:100A50008F828E83E493FF74752FF582E43400F562
:100A600083E0FF900128E0FCA3E0FD8D828C83E40D
:100A700093FE74672EF582E43400F583E0FEEE6F9A
:100A80007003020D88900128E0FEA3E0FF8F828EA4
:100A900083E493FF74672FF582E43400F583E0FF6D
:100AA000900128E0FCA3E0FD8D828C83740193FE0D
:100AB000EF6E6003020D88900128E0FEA3E0FF8F37
:100AC000828E83E493FF906004E0FEEF6E60030289
:100AD0000D88900128E0FEA3E0FF8F828E837402D0
:100AE00093FFEF547FFF900122EFF0900122E0FF8F
:100AF0007E00EF24FFFFEE34FFFEEFC4F8540FC872
:100B000068FFEEC454F048FE900125EFF0900128F4
:100B1000E0FEA3E0FF8F828E83740393FFEF540304
:100B2000FF900124EFF0900128E0FEA3E0FF8F8208
:100B30008E83740293FFEF5480FF7E00EF4E603C83
:100B4000900122E0FFEF75F00BA42405F582E43458
:100B500000F5837401F0900124E0FFEFB401047FFD
:100B60000780027F0D900122E0FEEE75F00BA424B9
:100B700009F582E43400F583EFF08039900122E03A
:100B8000FFEF75F00BA42405F582E43400F583E44F
:100B9000F0900124E0FFEFB401047F0580027F099B
:100BA000900122E0FEEE75F00BA42409F582E434F6
:100BB00000F583EFF0900125E0FF7E00EF240EFFAB
:100BC000EE3460FE8F828E837401F0900128E0FE87
:100BD000A3E0FF8F828E83740493FE740593FF90CD
:100BE0000122E0FDED75F00BA4240CF582E4340045
:100BF000F583EEF0A3EFF0900128E0FEA3E0FF8F75
:100C0000828E83740293FF900122E0FEEE75F00B5A
:100C1000A42408F582E43400F583EFF0900128E085
:100C2000FEA3E0FF8F828E83740393FF900122E086
:100C3000FEEE75F00BA42404F582E43400F583EF96
:100C4000F0900122E0FFEF75F00BA42407F582E499
:100C50003400F583E4F0900122E0FFEF75F00BA47F
:100C6000240CF582E43400F583E0FEA3E0FFEEFF00
:100C70007E00900125E0FEEEFD7C00ED240CFDECF5
:100C80003460FC8D828C83EFF0900122E0FFEF75E1
:100C9000F00BA4240CF582E43400F583E0FEA3E01D
:100CA000FFEF54FFFF900125E0FEEEFD7C00ED24F8
:100CB0000DFDEC3460FC8D828C83EFF0900122E01E
:100CC000FFEF75F00BA4240AF582E43400F583E00D
:100CD000FEA3E0FFEF54FFFF900125E0FEEEFD7C58
:100CE00000ED2486FDEC3460FC8D828C83EFF09067
:100CF0000122E0FFEF75F00BA4240AF582E4340032
:100D0000F583E0FEA3E0FFEEFF7E00900125E0FE0C
:100D1000EEFD7C00ED2487FDEC3460FC8D828C833D
:100D2000EFF0900122E0FFEF75F00BA4240AF582AA
:100D3000E43400F583E0FEA3E0FFEF54FFFF9001F1
:100D400025E0FEEEFD7C00ED2484FDEC3460FC8D9E
:100D5000828C83EFF0900122E0FFEF75F00BA4246A
:100D60000AF582E43400F583E0FEA3E0FFEEFF7EA7
:100D700000900125E0FEEEFD7C00ED2485FDEC34C5
:100D800060FC8D828C83EFF0900128E0FEA3E0FFF1
:100D9000EF2407FFEE3400FE900128EEF0A3EFF001
:100DA000900123E004F0020A3622BB010689828A00
:100DB00083E0225002E722BBFE02E32289828A837B
:100DC000E49322BB010689828A83F0225002F72233
:100DD000BBFE01F322C5F0F8A3E028F0C5F0F8E56A
:100DE00082158270021583E038F022BB010A8982E5
:100DF0008A83E0F5F0A3E022500687F009E7192284
:100E0000BBFE07E3F5F009E3192289828A83E493A4
:100E1000F5F074019322BB010A89828A83F0E5F020
:100E2000A3F0225006F709A7F01922BBFE06F3E54E
:100E3000F009F31922EF2BFFEE3AFEED39FDEC3805
:100E4000FC22E88FF0A4CC8BF0A42CFCE98EF0A45B
:100E50002CFC8AF0EDA42CFCEA8EF0A4CDA8F08B3B
:100E6000F0A42DCC3825F0FDE98FF0A42CCD35F081
:100E7000FCEB8EF0A4FEA9F0EB8FF0A4CFC5F02E12
:100E8000CD39FEE43CFCEAA42DCE35F0FDE43CFC7B
:100E90002275F008758200EF2FFFEE33FECD33CDC3
:100EA000CC33CCC58233C5829BED9AEC99E5829810
:100EB000400CF582EE9BFEED9AFDEC99FC0FD5F00F
:100EC000D6E4CEFBE4CDFAE4CCF9A88222B800C186
:100ED000B90059BA002DEC8BF084CFCECDFCE5F0F3
:100EE000CBF97818EF2FFFEE33FEED33FDEC33FC3A
:100EF000EB33FB10D703994004EB99FB0FD8E5E4E3
:100F0000F9FA227818EF2FFFEE33FEED33FDEC33C4
:100F1000FCC933C910D7059BE99A4007EC9BFCE953
:100F20009AF90FD8E0E4C9FAE4CCFB2275F010EF8F
:100F30002FFFEE33FEED33FDCC33CCC833C810D7D2
:100F4000079BEC9AE899400AED9BFDEC9AFCE89926
:100F5000F80FD5F0DAE4CDFBE4CCFAE4C8F922EFDF
:100F60004BFFEE4AFEED49FDEC48FC22EB9FF5F00D
:100F7000EA9E42F0E99D42F0E89C45F022E8600FCD
:100F8000ECC313FCED13FDEE13FEEF13FFD8F122BB
:100F9000E8600FEFC333FFEE33FEED33FDEC33FCBF
:100FA000D8F122BB010789828A83020FDD5005E94F
:100FB000F80210C2BBFE05E9F80210CE89828A83CE
:100FC0000210DABB010789828A83020FF55005E916
:100FD000F80210EABBFE05E9F80210F622E0FCA3D5
:100FE000E0FDA3E0FEA3E0FF22E0F8A3E0F9A3E028
:100FF000FAA3E0FB22ECF0A3EDF0A3EEF0A3EFF0F8
:1010000022A42582F582E5F03583F58322E0FBA357
:10101000E0FAA3E0F922EBF0A3EAF0A3E9F022E47E
:1010200093FB740193FA740293F922BB010789823E
:101030008A8302100D5005E9F8021102BBFE05E992
:10104000F802110B89828A8302101FD083D082F8A4
:10105000E4937012740193700DA3A393F874019339
:10106000F5828883E4737402936860EFA3A3A3807E
:10107000DFE50C2582F582E50B3583F583B50B049E
:1010800085820C2210AF0685820CF50B2285820C1E
:10109000F50BD2AF22EC8EF0A4CCC5F0CCCDF8EF9E
:1010A000A4CEC5F02DFDE43CFCE8A42EC8C5F03D5F
:1010B000FDE43CFCEFA4FFE5F028FEE43DFDE43C4C
:1010C000FC22E6FC08E6FD08E6FE08E6FF22E2FC5C
:1010D00008E2FD08E2FE08E2FF22E493FC740193BB
:1010E000FD740293FE740393FF22ECF608EDF608FC
:1010F000EEF608EFF622ECF208EDF208EEF208EF59
:10110000F222E6FB08E6FA08E6F922E2FB08E2FA38
:1011100008E2F922900227E4F0906004E0FF9002D8
:1011200028EFF0906000E0FFEF5480FF7E00EF6456
:10113000804E600302123F906001E0FFEF12104BFF
:1011400011A30111C0021202031150060000136422
:10115000906003E0FFEFB4211D121E55900068E07F
:10116000FEA3E0FFEF4E700302136412292C9002DD
:1011700027EFF0021364906003E0FFEF6422600346
:10118000021364121D2B900068E0FEA3E0FFEF4EF7
:10119000700302136412292C900227EFF0021364EB
:1011A00002136412172C900068E0FEA3E0FFEF4EDC
:1011B000700302136412292C900227EFF0021364CB
:1011C000900228E0FFEFC394014003021364906093
:1011D00002E0FFEF6003021364900068E4F0A37480
:1011E00001F0900228E0FF74F62FF9E43401FA7B55
:1011F0000190006A12101612292C900227EFF002BB
:101200001364900228E0FFEFC394014003021364CB
:10121000900068E4F0A37401F0900228E0FF74F4F9
:101220002FF9E43401FA7B0190006A12101612299A
:101230002C900227EFF002136402136402136490EF
:101240006000E0FFEF5480FF7E00EF4E600302136A
:1012500064906001E0FFEF12104B12670912840ADC
:1012600013300B0000136412172C900068E0FEA3EB
:10127000E0FFEF4E7003021364122B30900227EF51
:10128000F0021364900228E0FFEFC39401400302D0
:101290001364906002E0FFEF600302136490600348
:1012A000E0FF900228E0FE74F62EF582E43401F5AA
:1012B00083EFF0900228E0FF74F52FF582E434010B
:1012C000F583E0FF900228E0FE74F62EF582E43408
:1012D00001F583E0FEEEC39F5013900228E0FF74F7
:1012E000F52FF582E43401F583E4F080399002288B
:1012F000E0FF74F52FF582E43401F583E0FFEFD3CE
:1013000094014022900228E0FF74F62FF582E43425
:1013100001F583E0FF900228E0FE74F52EF582E4EB
:101320003401F583EFF0122F91900227EFF0803413
:10133000900228E0FFEFC394015029906002E0FF83
:10134000EFD39401501E906002E0FF900228E0FE6F
:1013500074F42EF582E43401F583EFF0122F9190AE
:101360000227EFF0900227E0FF229002157401F0AF
:10137000900216E4F0900216E0FFEFC39480400361
:10138000021558900216E0FF7E00EF2480FFEE3435
:1013900060FE8F828E83740CF0900215E0FFEF7573
:1013A000F00BA42409F582E43400F583E0FFEF603C
:1013B0004F900215E0FFEF75F00BA42408F582E4CE
:1013C0003400F583E0FFEF5480FF7E00EF4E60189D
:1013D000900216E0FF7E00EF240EFFEE3460FE8FD9
:1013E000828E83740CF0802E900216E0FF7E00EF58
:1013F000240EFFEE3460FE8F828E837408F0801618
:10140000900216E0FF7E00EF240EFFEE3460FE8FA8
:10141000828E837480F0900215E0FFEF75F00BA4CC
:10142000240CF582E43400F583E0FEA3E0FFEEFF38
:101430007E00900216E0FEEEFD7C00ED240CFDEC3B
:101440003460FC8D828C83EFF0900215E0FFEF7525
:10145000F00BA4240CF582E43400F583E0FEA3E055
:10146000FFEF54FFFF900216E0FEEEFD7C00ED243E
:101470000DFDEC3460FC8D828C83EFF0900215E062
:10148000FFEF75F00BA4240AF582E43400F583E045
:10149000FEA3E0FFEF54FFFF900216E0FEEEFD7C9E
:1014A00000ED2486FDEC3460FC8D828C83EFF0909F
:1014B0000215E0FFEF75F00BA4240AF582E4340076
:1014C000F583E0FEA3E0FFEEFF7E00900216E0FE53
:1014D000EEFD7C00ED2487FDEC3460FC8D828C8376
:1014E000EFF0900215E0FFEF75F00BA4240AF582EF
:1014F000E43400F583E0FEA3E0FFEF54FFFF900229
:1015000016E0FEEEFD7C00ED2484FDEC3460FC8DE5
:10151000828C83EFF0900215E0FFEF75F00BA424AE
:101520000AF582E43400F583E0FEA3E0FFEEFF7EDF
:1015300000900216E0FEEEFD7C00ED2485FDEC340B
:1015400060FC8D828C83EFF0900215E004F0900235
:1015500016E02410F002137590600A74FFF02290D8
:10156000010CEFF090010D12101690010CE0FFEF4E
:10157000D39400500302172B90010CE0FFEFC394AB
:1015800009400302172B90010CE0FF7E00EF24FFBF
:10159000FFEE34FFFEEFC4F8540FC868FFEEC454EA
:1015A000F048FE900112EFF0900112E0FF7E00EF94
:1015B0002488FFEE3460FE900113EEF0A3EFF0906C
:1015C000010CE0FFEF75F00BA4240AF582E434006F
:1015D000F583E0FEA3E0FFC3E49FFF74029EFE904C
:1015E0000110E0FCA3E0FDD3ED9FEC9E40289001AC
:1015F0000CE0FFEF75F00BA4240AF582E43400F54B
:1016000083E0FEA3E0FFC3E49FFF74029EFE90010F
:1016100010EEF0A3EFF0900110E0FEA3E0FFEEFF6C
:101620007E0090010CE0FEEE75F00BA42407F5821D
:10163000E43400F583E0FEEF4EFF900112E0FEEE91
:10164000FD7C00ED240CFDEC3460FC8D828C83EF7E
:10165000F0900110E0FEA3E0FFEF54FFFF900112B5
:10166000E0FEEEFD7C00ED240DFDEC3460FC8D828F
:101670008C83EFF07B007A007900C003C002C001C8
:1016800090010D12100DD082D083D0E06B7008E96C
:1016900065827003EA65836051900115E4F0A3E46C
:1016A000F0900110E0FEA3E0FF900115E0FCA3E044
:1016B000FDC3ED9FEC9E503290010D12100D900174
:1016C00015E0FEA3E0FFE92FF9EA3EFA120DAAFFAA
:1016D000900113E0FCA3E0FD8D828C83EFF090017C
:1016E00015E475F001120DD580B790010CE0FFEF05
:1016F00075F00BA42405F582E43400F583E4F09042
:10170000010CE0FFEF75F00BA42409F582E434002E
:10171000F583E0FF900112E0FEEEFD7C00ED240E6B
:10172000FDEC3460FC8D828C83EFF022900068E445
:10173000F0A3E4F090007CE0FFEF14FF122682900B
:10174000015DEEF0A3EFF0906003E0FF900163EF26
:10175000F0906004E0FF900162EFF0900162E0FF22
:101760007E00EF2402FFEE3400FEEF7802C333CE9A
:1017700033CED8F9FF90015DE0FCA3E0FDEF2DFF33
:10178000EE3CFE90015DEEF0A3EFF090015DE0FE17
:10179000A3E0FF8F828E83A312101FAE02AF0190D1
:1017A000015DEEF0A3EFF0900162E0FFEFC3940162
:1017B00040030218E8900162E0FF74672FF582E4AD
:1017C0003400F583E0FF7E04EF8EF0A4FFAEF090CE
:1017D000015DE0FCA3E0FDEF2DFFEE3CFE90015D1E
:1017E000EEF0A3EFF090015DE0FEA3E0FF8F828EAC
:1017F00083A312101FAE02AF0190015DEEF0A3EFC4
:10180000F0900163E0FFEFC3940150030218E890E9
:101810000163E0FFEFD3940340030218E8900163F3
:10182000E0FF7E00EF24FFFFEE34FFFEEF7802C3FF
:1018300033CE33CED8F9FF90015DE0FCA3E0FDEF9D
:101840002DFFEE3CFE90015DEEF0A3EFF090600204
:10185000E0FF900163EFF090015DE0FEA3E0FF8FF9
:10186000828E83E493FF900163E0FEEFC39E407895
:1018700090015DE0FEA3E0FF8F828E83A312101F14
:1018800090015F121016900163E0FF7E08EF8EF06A
:10189000A4FFAEF090015F12100DE92FF9EA3EFAB5
:1018A00090015F12101690015F12100DE92402F9E9
:1018B000EA3400FA12102B90006A12101690015FA1
:1018C00012100D120DEBFFAEF0900068EEF0A3EFDA
:1018D000F090015F12100DE92405F9EA3400FA12C4
:1018E000102B90006D121016229001F3E4F090601E
:1018F00004E0FFEF547FFF9001F1EFF09001F1E081
:10190000FF7E00EF24FFFFEE34FFFEEFC4F8540F1C
:10191000C868FFEEC454F048FE9001F2EFF0900169
:10192000F1E0FFEFD394005003021A579001F1E069
:10193000FFEFC394094003021A579001F1E0FFEF53
:1019400075F00BA42406F582E43400F583E0FFEF84
:1019500054FEFFEFF09001F1E0FFEF75F00BA424CF
:1019600007F582E43400F583E4F09001F2E0FF7EB5
:1019700000EF240CFFEE3460FE8F828E83E0FFEFD9
:10198000547FFFEFF09001F1E0FFEF75F00BA4241E
:1019900005F582E43400F583E0FFEF54FDFFEFF03E
:1019A0009001F1E0FFEF75F00BA42408F582E43418
:1019B00000F583E0FFEF5480FF7E00EF4E6049901A
:1019C00001F1E0FFEF75F00BA42405F582E434008B
:1019D000F583E0FFEFB401189001F2E0FF7E00EF25
:1019E000240EFFEE3460FE8F828E83740CF0805FD5
:1019F0009001F2E0FF7E00EF240EFFEE3460FE8FD8
:101A0000828E83740DF080479001F1E0FFEF75F056
:101A10000BA42405F582E43400F583E0FFEFB40164
:101A2000189001F2E0FF7E00EF240EFFEE3460FE1E
:101A30008F828E837408F080169001F2E0FF7E00A2
:101A4000EF240EFFEE3460FE8F828E837409F01255
:101A50002F919001F3EFF09001F3E0FF22C0E0C07E
:101A6000F0C083C082C085C084C086758600C093E4
:101A7000759300C0D075D000C000C001C002C00383
:101A8000C004C005C006C007906028E0FF90021D9A
:101A9000EFF090021DE0FFEF5410FF7E00EF4E705C
:101AA00003021BAB90021E7401F090021DE0FFEFD9
:101AB0005480FF7E00EF4E603190021DE0FFEF5436
:101AC0000FFF7E00EF64014E600790021EE4F0807D
:101AD0004612271D900000E0FFEF5480FF7E00EFCC
:101AE0004E603490021EE4F0802D90021DE0FFEF66
:101AF0005440FF7E00EF4E6005122F2B801990029C
:101B00001DE0FFEF5420FF7E00EF4E6005122E4BCC
:101B1000800590021EE4F090021EE0FFEF700302C9
:101B20001BAB906028E0FF90021DEFF090021DE0DB
:101B3000FFEF5480FF7E00EF4E7070900003E0FFD7
:101B4000900078E0FEEE4FFF90021DEFF090021D36
:101B5000E0FF906029EFF0906029E0FF90021DE027
:101B6000FEEE6F7046900000E0FF90021EEFF090D6
:101B70006028E0FFEF5480FF90021DEFF090021DFF
:101B8000E0FFEF7018900000E0FF906028EFF09009
:101B90006028E0FFEF540FFF90021EEFF09000006E
:101BA000E0FF90021EE0FEEEB507BAD007D006D0E7
:101BB00005D004D003D002D001D000D0D0D093D033
:101BC00086D084D085D082D083D0F0D0E0327B0024
:101BD0007A4679E8123047EF4405FD7B007A467972
:101BE000E8123053750A00E50AC39408503AAF0A68
:101BF000EF75F005A424CAF582E43431F583AF8291
:101C0000AE838E088F09AE08AF098F828E831210C3
:101C10001FAE08AF098F828E83740393FC74049304
:101C2000FD122FAB050A80BF7B087A007900122EC7
:101C3000A97B017A507903123047EF4402FD7B0102
:101C40007A5079031230537B017A5079131230475E
:101C5000EF4402FD7B017A5079131230539043A078
:101C6000E0FFEF4440FF9043A0EFF09043C2E0FF5D
:101C7000EF4410FF9043C2EFF07B087A007944C034
:101C800003C002C0017B007A5179F0900153121019
:101C900016D001D002D0037F0A7E00122DB17B083E
:101CA0007A007950C003C002C0017B007A517912DA
:101CB000900153121016D001D002D0037F087E008D
:101CC000122DB19044F47401F0904322E0FFEF44F0
:101CD00008FF904322EFF09046ECE0FFEFC394053D
:101CE0005006904689743AF090480074C0F0122271
:101CF0002B9048007480F0122D7B7B007A4379A0F2
:101D0000C003C002C0017B007A4379B09001531236
:101D10001016D001D002D0037F0E7E00122DB1909C
:101D200043B0E0FFEF54FDFFEFF02290007CE0FFB6
:101D3000EF14FF122682900185EEF0A3EFF0906081
:101D400004E0FF90018AEFF090018AE0FF7E00EF4F
:101D50002402FFEE3400FEEF7802C333CE33CED838
:101D6000F9FF900185E0FCA3E0FDEF2DFFEE3CFEC6
:101D7000900185EEF0A3EFF0900185E0FEA3E0FF77
:101D80008F828E83A312101FAE02AF01900185EEE9
:101D9000F0A3EFF090018AE0FF74672FF582E4343E
:101DA00000F583E0FF7E04EF8EF0A4FFAEF090011B
:101DB00085E0FCA3E0FDEF2DFFEE3CFE900185EEFB
:101DC000F0A3EFF0900185E0FEA3E0FF8F828E8309
:101DD000A312101FAE02AF01900185EEF0A3EFF049
:101DE000900185E0FEA3E0FFEF240CFFEE3400FE3F
:101DF000900185EEF0A3EFF0900185E0FEA3E0FFF7
:101E00008F828E83A312101F9001871210169001EB
:101E10008712100DE92401F9EA3400FA120DAAFF25
:101E20007E00EF7F00FE90018712100D120DAAFDBB
:101E30007C00EE4CFEEF4DFF900068EEF0A3EFF05B
:101E400090018712100DE92402F9EA3400FA90009B
:101E50006A1210162290007CE0FFEF14FF12268217
:101E600090017FEEF0A3EFF0906004E0FF9001841A
:101E7000EFF0900184E0FF7E00EF2402FFEE3400DB
:101E8000FEEF7802C333CE33CED8F9FF90017FE066
:101E9000FCA3E0FDEF2DFFEE3CFE90017FEEF0A3F2
:101EA000EFF090017FE0FEA3E0FF8F828E83A3120C
:101EB000101FAE02AF0190017FEEF0A3EFF0900192
:101EC00084E0FF74672FF582E43400F583E0FF7E41
:101ED00004EF8EF0A4FFAEF090017FE0FCA3E0FDE4
:101EE000EF2DFFEE3CFE90017FEEF0A3EFF09001AE
:101EF0007FE0FEA3E0FF8F828E83A312101FAE024D
:101F0000AF0190017FEEF0A3EFF090017FE0FEA320
:101F1000E0FFEF2410FFEE3400FE90017FEEF0A30F
:101F2000EFF090017FE0FEA3E0FF8F828E83A3128B
:101F3000101F90018112101690018112100D120DC8
:101F4000AAFF7E00900068EEF0A3EFF090018112EE
:101F5000100D90006A121016229001F0E4F09060CB
:101F600004E0FFEF547FFF9001EEEFF09001EEE010
:101F7000FF7E00EF24FFFFEE34FFFEEFC4F8540FA6
:101F8000C868FFEEC454F048FE9001EFEFF09001F6
:101F9000EEE0FFEFD39400500302204A9001EEE000
:101FA000FFEFC39409400302204A9001EEE0FFEFE7
:101FB00075F00BA42406F582E43400F583E0FFEF0E
:101FC0004401FFEFF09001EEE0FFEF75F00BA42469
:101FD00007F582E43400F583E4F09001EEE0FFEFD2
:101FE00075F00BA42405F582E43400F583E0FFEFDF
:101FF0004402FFEFF09001EEE0FFEF75F00BA42438
:1020000008F582E43400F583E0FFEF5480FF7E00A2
:10201000EF4E60189001EFE0FF7E00EF240EFFEE20
:102020003460FE8F828E83748DF080169001EFE015
:10203000FF7E00EF240EFFEE3460FE8F828E8374ED
:1020400089F0122F919001F0EFF09001F0E0FF2263
:10205000122FDC900242EFF09043A5E0FFEF440125
:10206000FFEFF09043B5E0FFEF4401FFEFF0906029
:102070009D7401F09060097402F0906010E0FFEF31
:10208000547FFFEFF07F007E00122E7C904394E09F
:10209000FFEF54F9FFEFF0906012E0FFEF54DFFF25
:1020A000EFF0904394E0FFEF4401FFEFF07F017EFB
:1020B00000122E7C7F287E00122E7C9051F8E0FFCB
:1020C000EF547FFFEFF09051F8E0FFEF54BFFFEFC8
:1020D000F0904394E0FFEF4402FFEFF07F027E00B8
:1020E000122E7C904394E0FFEF4404FFEFF09060E9
:1020F00084E4F0906085E4F0900242E0FF122FC487
:102100007C2C7D487F1712282E7D077F17122B8F7E
:102110007C2E7D797F1512282E7D077F15122B8F3F
:102120007C1A7D5D7F1812282E7D077F18122B8F59
:102130007C2A7D017F0012282E7D077F00122B8FC5
:102140002275930078007583467582E8E04401F0BB
:10215000009046ECE0F99046FAE0FAB903225420E8
:10216000B40012B8001AEA901FFFF07401901FFE2D
:10217000F09046F6F0901FFEE06005901FFFE0FA39
:1021800090480074C0F075810C90000078007920B0
:10219000E4F0A3D8FCD9FAEA9000DDF00200117552
:1021A0000B1F750CFD121BCE0221E60228B0E49332
:1021B000A3F8E493A34003F68001F208DFF480293A
:1021C000E493A3F85407240CC8C333C4540F442029
:1021D000C8834004F456800146F6DFE4800B010218
:1021E000040810204080902D36E47E019360BCA34B
:1021F000FF543F30E509541FFEE493A360010ECF66
:1022000054C025E060A840B8E493A3FAE493A3F88F
:10221000E493A3C8C582C8CAC583CAF0A3C8C5824F
:10222000C8CAC583CADFE9DEE780BE9043007406F2
:10223000F09042007452F07B0C7A01790F12304713
:102240009046A1EFF07B007A4279227D0B7C071249
:1022500030387B007A4279207D517C1212303890E0
:1022600001A5E4F07F197E007D007C009001A112A1
:102270000FF59001A1120FDDD3EF9400EE94004012
:102280004E9001A5E0FFEF64036044904225E0FF1B
:10229000EF5401FF7E009001A5E0FEEE25E0FEEE8A
:1022A0004FFFEF5403FF9001A5EFF07FE07E017D2B
:1022B000007C00122E009001A1120FDD7BFF7AFF3F
:1022C00079FF78FF120E359001A1120FF580A390CF
:1022D00001A1120FDDEF4E70057F031230067B0067
:1022E0007A4079047D007C011230389040047407F4
:1022F000F0904006E4F09040087448F0904004E408
:10230000F0904009E4F09040017402F02290024FF6
:10231000E4F0900071E0FF7E00900001EE8FF0127B
:102320000DD5900068E0FEA3E0FFD3EF9400EE949B
:1023300000405390024FE0FFEFC3940850489000D4
:102340006A12100D120DAAFF90024FE0FEEEFD7C06
:1023500000ED2400FDEC3460FC8D828C83EFF09066
:10236000006A12100DE92401F9EA3400FA90006ABB
:1023700012101690024FE004F090006874FF75F0A0
:10238000FF120DD5809C900071E0FFEF6408600B98
:1023900090024FE0FFEFD39400401C900078E0FFE4
:1023A000EF6480FF900078EFF0900000740FF090E1
:1023B00000797402F0800C9000007402F0900079B3
:1023C0007402F090024FE0FF900071EFF090024F26
:1023D000E0FF900003EFF0229001E2EFF09001E3C4
:1023E000EDF09001E4E4F09001E4E0FFEFC394012C
:1023F000501A9001E4E0FF74F42FF582E43401F503
:10240000837401F09001E4E004F080DB9044C27436
:1024100080F09044C37401F09044C07401F09000C7
:1024200079E4F09001E3E0FFEF12104B2436002432
:102430003E01000024469060097402F0800E906016
:10244000097403F080069060097403F09001E2E0E3
:10245000FF90007AEFF090007CE4F0900070E4F0E0
:10246000900074E4F0900076E4F090007BE4F0904B
:102470000071E4F09060287403F09060087480F0BC
:102480007F017E007D007C00122E0090601274049B
:10249000F022900224E4F0906029E0FFEF540FFF57
:1024A000EF24FEFF900223EFF0900223E0FF7E0076
:1024B000900001EE8FF0120DD5900068E0FEA3E0D1
:1024C000FFD3EF9400EE94004057900223E0FFEF1B
:1024D000D39400404C900224E0FF7E00EF2400FFE4
:1024E000EE3460FE8F828E83E0FF90006A12100D42
:1024F000EF120DC390006A12100DE92401F9EA34BD
:1025000000FA90006A121016900224E004F0900283
:1025100023E014F090006874FF75F0FF120DD58071
:1025200098900223E0FF900003EFF0900078E0FF26
:10253000EF6480FF900078EFF0900000740BF022C1
:1025400090019C7401F0906004E0FF90019DEFF019
:1025500090007CE0FFEF14FF12268290019EEEF0C7
:10256000A3EFF090019EE0FEA3E0FF8F828E83A395
:1025700012101FE92404F9EA3400FA120DAAFF90A0
:1025800001A0EFF09001A0E0FF90019DE0FEEEC3FE
:102590009F500B90019DE0FFEFC394014007900115
:1025A0009CE4F0803890019DE0FF74672FF582E491
:1025B0003400F583E0FF90019DE0FE74752EF582F6
:1025C000E43400F583EFF0906002E0FF90019DE0BD
:1025D000FE74672EF582E43400F583EFF090019CE1
:1025E000E0FF2290007CE0FFEF14FF1226829001B2
:1025F00097EEF0A3EFF0900197E0FEA3E0FFEF4E1F
:10260000606F900197E0FEA3E0FF8F828E83A3129C
:10261000101FE92404F9EA3400FA120DAAFF900110
:102620009BEFF090019BE0FF7E00EF2402FFEE3471
:1026300000FEEF7802C333CE33CED8F9FF90019776
:10264000E0FCA3E0FDEF2DFFEE3CFE900197EEF0E5
:10265000A3EFF0900197E0FEA3E0FF8F828E83A3AB
:1026600012101FAE02AF01900199EEF0A3EFF080BF
:1026700008900199E4F0A3E4F0900199E0FEA3E052
:10268000FF229001EBEFF090007AE0FFEF25E025CC
:10269000E0248DF582E43431F58312101FAE02AFD1
:1026A000019001ECEEF0A3EFF09001ECE0FEA3E06E
:1026B000FFEF2404FFEE3400FE9001ECEEF0A3EFF8
:1026C000F09001ECE0FEA3E0FF8F828E83E493FFA5
:1026D0009001EBE0FEEEC39F400A9001ECE4F0A312
:1026E000E4F080309001ECE0FEA3E0FF8F828E8367
:1026F000C083C0829001EBE0FFD082D08375F004EC
:10270000EF121001A312101FAE02AF019001ECEE08
:10271000F0A3EFF09001ECE0FEA3E0FF2290602830
:10272000E0FF90024EEFF090024EE0FF906028EF45
:10273000F0906028E0FF90024EEFF090024EE0FF34
:10274000EF5480FF7E00EF4E600B90024EE0FF9052
:102750000000EFF0227F02122ACE906000E0FFEF2F
:102760005460FFEF12104B277400277E202788400B
:102770000000279212001A90024EEFF080191227E3
:10278000A690024EEFF0800F122C9990024EEFF0BF
:10279000800590024EE4F090024EE0FFEF7006904C
:1027A00000007403F02290021BE4F090021CE4F09D
:1027B000906000E0FFEF5403FFEF12104B27C701BA
:1027C00027D302000027F1906004E0FF90021CEF85
:1027D000F0801E906004E0FFEF547FFFEF75F00B78
:1027E000A4240EF582E43400F583E0FF90021CEF90
:1027F000F090021CE0FF900072E0FCA3E0FD8D82EF
:102800008C83E5822FF582E43583F583E493FFEF33
:1028100012104B282801282802282003000028280D
:1028200012111490021BEFF090021BE0FF229001A6
:10283000BAEFF09001BBECF0A3EDF09001BAE0FF2D
:10284000EFD3941F5003D38001C340057F00122FA4
:10285000F19001BAE0FFEF541FFF7E00EF25E0FF8B
:10286000EE33FEEF2400FFEE3444FEAA06A9077BF8
:102870000112302B9001BDEEF0A3EFF09001BAE011
:10288000FF7E02EF8EF0A4FFAEF0EF2400FFEE34E7
:1028900044FEAA06A9077B019001BBE0FEA3E0FF6E
:1028A000AD07AC0612303A9001BDE0FEA3E0FF2276
:1028B000900241E4F0D2AF9044F474FDF07B017AD1
:1028C0000079C01229987D007F00122F0212305F1C
:1028D000EF60FA7B017A0079D0900110E4F0A374E4
:1028E00003F07F0112155F7F01122A68EF60F87B09
:1028F000017A0079D0900110E4F0A37403F07F0115
:1029000012155F900241E0FFEFB480089000D1748F
:1029100005F0800F900241E0FFEFB4FF069000D178
:1029200074FBF0900241E004F080BC22900068E06B
:10293000FEA3E0FFEF4E7005122F728058900079D1
:102940007402F0900078E4F0122CE9906007E0FF48
:102950007E00EF7F00FE906006E0FD7C00EE4CFE06
:10296000EF4DFF90021FEEF0A3EFF090021FE0FE8C
:10297000A3E0FF900068E0FCA3E0FDD3ED9FEC9E98
:10298000401090021FE0FEA3E0FF900068EEF0A36D
:10299000EFF012230D7F01229001E8121016900132
:1029A0007BE4F07B007A007900C003C002C0019094
:1029B00001E812100DD082D083D0E06B7008E96579
:1029C000827003EA658360389001E812100D120DE1
:1029D000AAFFEFD3940140289001E812100DE924DA
:1029E00001F9EA3400FA120DAAFFEFB403129001C4
:1029F000E812100D90017C12101690017B7401F00A
:102A000022C0E0C083C082C085C084C086758600B5
:102A1000C093759300C0D075D000C006C007906009
:102A20000EE0FF90000FE0FFEF5403FF7E00EF6425
:102A3000014E600E900012E0FFEF6480FF900012E4
:102A4000EFF09000107401F090600BE0FFEF54FE87
:102A5000FFEFF0D007D006D0D0D093D086D084D06E
:102A600085D082D083D0E0329001E5EFF09001E78D
:102A7000E4F09001E5E0FFEFD39400404B9001E5D6
:102A8000E0FFEFC3940950409001E5E0FF7E00EFC6
:102A900024FFFFEE34FFFEEFC4F8540FC868FFEECA
:102AA000C454F048FE9001E6EFF09001E6E0FF7EAE
:102AB00000EF240EFFEE3460FE8F828E83E0FFEF86
:102AC0005410FF9001E7EFF09001E7E0FF22900241
:102AD00050EFF07B007A007900C003C002C0019083
:102AE000006D12100DD082D083D0E06B7008E965C4
:102AF000827003EA65836037900250E0FF90006DBA
:102B000012100DEF120DC3900001E0FEA3E0FF9044
:102B1000006D12100DE92401F9EA3400FAEE8FF08D
:102B2000120E167B007A00790090006D12101622AA
:102B30009000797404F09000787480F0122CE99081
:102B40006007E0FF7E00EF7F00FE906006E0FD7C06
:102B500000EE4CFEEF4DFF900221EEF0A3EFF0905F
:102B60000221E0FEA3E0FF900068E0FCA3E0FDD3BB
:102B7000ED9FEC9E4010900221E0FEA3E0FF90004C
:102B800068EEF0A3EFF0900000740BF07F0122904C
:102B90000237EFF0900238EDF0900238E0FFEFD30B
:102BA00094075003D38001C340057F00122FF1909A
:102BB0000237E0FFEFD3941F5003D38001C34005D9
:102BC0007F00122FF1900238E0FFEF5407FF7E00E4
:102BD000EF75F020A4FFAEF0900237E0FEEE541F38
:102BE000FE74802EF582E43444F583EFF0229002E7
:102BF00043E4F0900243E0FFEFC39401501A9002C7
:102C000043E0FF74F42FF582E43401F5837401F09E
:102C1000900243E004F080DB900079E4F090007CC7
:102C2000E4F0900070E4F0900074E4F0900076E43A
:102C3000F090007BE4F0900071E4F0906028740361
:102C4000F09060087480F022C0E0C0F0C083C082C1
:102C5000C085C084C086758600C093759300C0D0BF
:102C600075D000C000C001C002C003C004C005C0D0
:102C700006C007122BEED007D006D005D004D00333
:102C8000D002D001D000D0D0D093D086D084D085CF
:102C9000D082D083D0F0D0E03290025EE4F0906039
:102CA00000E0FFEF5480FF7E00EF64804E703490B0
:102CB0006001E0FFEF12104B2CBF0100002CE37B02
:102CC000FF7A3179A290006A1210169031A2E49333
:102CD000FF7E00900068EEF0A3EFF012292C900226
:102CE0005EEFF090025EE0FF22900001E4F0A3E4CA
:102CF000F07B007A007900C003C002C00190006D33
:102D000012100DD082D083D0E06B7008E96582701C
:102D100003EA6583601F90006D12100DE4120DC36D
:102D200090006D12100DE92401F9EA3400FAE475FF
:102D3000F000120E16224300D00000005000C00E1A
:102D4000034600570053004E0030003100000041A0
:102D5000024B0041017B004400D901F78A40440046
:102D6000D4000080E84100D8214400DE4074000017
:102D70004301C400000041026C00007B0C7A017921
:102D8000CF12304790024DEFF090024DE0FFEF542C
:102D900007FF90586EEFF090024DE0FFEFC4540F24
:102DA000FFEF540FFF90586FEFF09058767444F097
:102DB00022758600EF4E6027EF60010E759300903C
:102DC0000153E0F595A3E0F585A3E0F5848B938AA4
:102DD000838982E0A30586F0A31586DFF6DEF4E49E
:102DE000F593F5952290007AE0FFEF25E025E024A9
:102DF0008DF582E43431F58312101FAE02AF01224B
:102E0000EC4D4E700D78FCEF24E950032840FD2274
:102E1000000078C5904800E0C403035403902E4797
:102E20009325E0240FF404FBEF28FF78FFEE38FE33
:102E3000ED38FDEC38FC50D7EF2BFFEE38FEED38C7
:102E4000FDEC38FC40F22205020304900079E0FF1B
:102E5000EF12104B2E78002E65022E69042E6D069F
:102E600000002E7822122F5122122492227F031268
:0A2E70002ACE9000007403F0223215
:102E7C00EEFA9000D8E0F88FF0A4FFAEF0E88AF0FC
:102E8C00A42EFEE5F03400FDEF24C9FF78FFEE38E8
:102E9C00FEED38FDE438FC5003022E0022ACEAAD06
:102EAC00A08B938A838982E0F96017A3E0F5EAA3EB
:102EBC00E0F5A0A3E060F4FAA3E0F8A3E0F2DAF8FE
:102ECC00D9E98DA08CEAE4F59322900076E0FFEF2F
:102EDC006013900076E0FFEF4480FF906008EFF005
:102EEC00900076E4F0900079E4F07F01122ACE9005
:102EFC0000007403F02290020FEFF0900210EDF03E
:102F0C0090024BE0FFEF700912205090024B7401BD
:102F1C00F090020FE0FF900210E0FD1223D82290F7
:102F2C000079E0FFEF12104B2F50002F45022F4974
:102F3C00042F4D0600002F5022123065221230183B
:102F4C0022122ED622900071E0FF7E00900001EE3E
:102F5C008FF0120DD5900079E4F07F01122ACE90FB
:102F6C0000007403F0229000797402F090007874E1
:102F7C0080F0900000740FF0900071E4F09000036A
:102F8C00E4F07F01229000797406F0900000740642
:102F9C00F09000787480F0900003E4F07F0122EC54
:102FAC004D6011ED60010C8B938A838982E4F0A350
:102FBC00DDFCDCFA75930022EF54016004D2AF8083
:102FCC0002C2AFEF5402FF9044F4E054FD4FF022E4
:102FDC009044F4E0F84402F0E85402FF10AF0122F0
:102FEC0074014FFF2290FFFF121071EFF09046EA30
:102FFC007401F09000011210712290024CEFF090CD
:10300C00024CE0FF90024CEFF080FE22900079E43D
:10301C00F07F01122ACE9000007403F0228B938A69
:10302C00838982E0FFA3E0FE759300228B938A8351
:10303C008982EDF0A3ECF0759300228B938A83893F
:10304C0082E0759300FF228B938A838982EDF07561
:10305C0093002290007CE0FF2212230D221201002B
:10306C000200000008B4041DF200000102800109F6
:10307C00022200010101C00009040000010300004C
:10308C000009211101000122360007058103080007
:10309C000A040309042C03430079007000720065D4
:1030AC0000730073002000530065006D006900631D
:1030BC00006F006E0064007500630074006F007296
:1030CC00000C034D006F00750073006500000203D7
:1030DC00360005010902A1010901A1000509050934
:1030EC0005091901290315002501950375018102B4
:1030FC009501750581010501093009311581257F7F
:10310C00750895028106C0C0000032000501090255
:10311C00A1010901A10005091901290315002501C7
:10312C009503750181029501750581010501093031
:10313C0009311581257F750895028106C0C00000F4
:10314C00000401015601015A00FF314C000000003F
:10315C000000000001FF30DC01FF308D01FF315415
:10316C00000081030008030301FF307B01FF316C79
:10317C0001FF316800FF317301FF306901FF3174C9
:10318C0001FF318412034D005300460054003100FE
:10319C003000300001002800000000010400010094
:1031AC00000000000000000143595553420000008C
:1031BC0030303030310000000000000000000051C1
:1031CC0000001000512000500051C0001001000000
:1031DC00100001140008000140000A00014C00021C
:0631EC000001500000206C
:00000001FF
