:400000000080002011000000C9400000C940000008B5044B1A6803F53F5302331A6004F055F800BFFA46004010B5054C237833B9044B13B10448AFF300800123237010BD14
:40004000C088FF1F0000000028520000084B10B51BB108480849AFF300800848036803B910BD074B002BFBD0BDE81040184700BF0000000028520000C488FF1F0881FF1FCF
:400080000000000030B587B00D88CA78002306E0C818047906A8184400F8094C0133C8789842F5D80F498A710D6000234B7106E006A9194411F8090C0B49C85401331146CB
:4000C0009A42F5D8002304E0074AD05C074AD05401338B42F8D3034804F02EFC002007B030BD00BF148BFF1F048BFF1F0C8BFF1F08B503F02BFF62B604F0CCFB03F0C4FF24
:40010000642004F003FD2F4C0025A575052003F04FFC607B04F004FE012323726372A372E5720223237365734FF4FA7323806380254B9B7AAA2B09D104F0F8FD10F0400F2A
:4001400004D003F01BFFA0221F4B9A7204F0EEFD10F0400F0CD001221C4B1A60194B00221A741A7520201A490870DA815A740CE0184B1A78AA2A04D0124BDB7DDBB2112B6A
:4001800003D1A02A01D003F033FD124B1B78A02B05D10C4C607B04F0C3FDFF23E3750D4B1B78882B07D100210B4A1170054A042151741121D175AA2BBAD10122064B1A703F
:4001C000B6E700BF308BFF1F208BFF1FF88AFF1F1C8AFF1F1B8AFF1FA688FF1FD0F878311B7843B10CE0D0F87C21002142F823100133DBB200E0002390F875219A42F2D82F
:400200000020704710B5044641F203010022044B00F0A4FAD4F8783100221A7010BD00BFDD010000704700BF38B5CB78082B0BD10B4609881A795D79D0F8A84101F07F01F5
:4002400042EA05229B79A04738BD00BF704700BF38B5D0F89C3053F82130C3F30743D0F8A0404FF6FF7524F81150C118012481F8B040D0F8AC201946904738BD10B584B0EC
:400280000446D0F8A4301B88ABB103681B7803F5E063ADF8043001238DF8073000238DF8063090F878308DF80830D0F8500101A9FFF7E8FE05E0B0F9A80003F0D1FAA4F86D
:4002C000A80004B010BD00BF2DE9F04186B006460F7807F07F078B78012B25D103681B78BB4264D103F5E063ADF80C3001238DF80F3000238DF80E3090F878308DF8103015
:4003000090F84C213AB163F07F038DF81030002380F84C3102E0012380F84C31D6F8500103A9FFF7AFFE42E00C7904F07F04C31993F8B030A34207D0D0F848313946224679
:400340009847F31983F8B040F31993F8B03023B9D6F84431304639469847F31993F8B0300F2B1ED123E0D6F89C3053F82430C3F30742974212D19DB2D6F8A03033F91400F9
:4003800003F06EFAD6F8A0800023009330462146084A2B4603F014FA28F814000134E4B200E00024D6F898301B78A342DBD806B0BDE8F0815102000070B582B0054641F2E5
:4003C00017010022154B00F0C9F9002485F84C4111E0D5F89C3033F8243053B1D5F8A06000220092284621460D4A03F0E9F926F814000134E4B2D5F898301B78A342E8D82A
:40040000D5F8A4301B883BB1009328460021054A03F0D6F9A5F8A80002B070BD5D040000510200007D02000070B50646002409E0D6F8A05035F9140003F012FA25F8140054
:400440000134E4B2D6F898301B78A342F0D8B6F9A80003F005FAA6F8A80070BD10B50446FFF7E2FF2046FFF7A7FF002010BD00BF704700BF704700BF704700BF00B585B03F
:400480000023ADF804308DF8063002238DF807308DF808208DF80910D0F8500101A9FFF7F1FD05B05DF804FB38B590F878307F2B03D0052B01D0042B4AD14A791AB10468CA
:4004C0002478A24244D104460A79802A1CD004D8012A07D0022A0ED038BD812A1CD0822A23D038BD7F2B01D0042B31D12046052102F098FE38BD7F2B01D0052B28D120463D
:40050000042102F08FFE38BD043BDBB2012B1FD87F2102F087FE38BDD0F8903003B198472046002102F07EFE38BD02F0FBFE0546D4F894300BB1204698472368FF221A7025
:400540002046294602F0F2FE2046002102F06AFE38BD00BF00B585B003681B7843F4E063ADF8043000238DF8063001228DF807208DF80830D0F8500101A9FFF783FD05B09C
:400580005DF804FBF0B583B015461E46D0F85431084601A96A469847019C002C4AD10379AB4241D99DF828303BB1026805EB45039B00D35C13F0010F38D1002E38D0036813
:4005C00005EB4505AD002B445A68089909688A4203D9089B1A60194C2CE05B78099A1370026815446F68092B07D03046A9683A4604F006FE089B1F601CE0A868089B1968AC
:4006000001B939460144034602E00133327001361A780AB18B42F8D3181A089A1060874208D900221A7005E0054C03E0054C01E04FF00064204603B0F0BD00BF0500040504
:4006400011000906010001062DE9F04F85B006460F4615460193D0F85431084603A902AA9847039C002C66D180460379AB425DD99DF83C3033B1026805EB45039B00D35CAE
:40068000022B55D0D8F8003005EB45094FEA89094B4493F801B0D3F804A00E9B1B6833B19A4504D0BBF1090F3BD19A4539D9736A5846019998470446039000283BD1D8F84C
:4006C00000304B44986801990E9B1A6804F098FDBBF1090F09D10E9B1B68534505D2D8F800204A4492680021D1540E9BC3F800A0029B43B153F825302BB1304641462A4678
:4007000098470390B0B9D8F8003013F8093013F0040F10D0D6F85831304639462A46984709E00E9BC3F800A0054C04E0054C02E0054C00E00446204605B0BDE8F08F00BF3B
:4007400010000706110009060200010610B5D0F85441084611461A46A04710BD30B583B014461D4601AA6B46FFF7F0FF019B33B9009B23B10279A24201D943F824500198CA
:4007800003B030BD704700BF70B5836801EBC10149001944166855689468C1F80660C1F80A50C1F80E40D0F850011146FFF76AFC70BD00BF2DE9F0439846DDF81CC09DF82A
:4007C00020609DF824304DE0B71AFFB27CB2002C06DD91F800E00EFA04FE5FFA8EFE07E091F800E07CB264424EFA04FE5FFA8EFE7FB2002F03DDC6F10804E4B202E0C2F1CB
:400800000804E4B2844228BF04463719FF2505FA07F7C6F1080945FA09F53D43EDB22EEA050E9CF800703D404EEA05058CF800502244D2B2072A08D9B8F1000F02D04FF003
:40084000FF3200E00122114400222644F6B2072E06D913B14FF0FF3500E00125AC440026001BC0B20028AFD1BDE8F0832DE9F04F89B08146904642684369188908445B89B5
:40088000194402EBC10652F831309F6852F830305B691B68C3F30A03A8F80030002488F80240254600238DF818308DF819308DF81A308DF81B308DF81C308DF81D308DF81B
:4008C0001E308DF81F303268631C03EB43039B0013449B681868010C10F0FF0A29D005EB0A0BBBF1400F24D80AF1FF32D208013205925A7805AB00930DF113030193002359
:40090000029301230393484606ABFFF73BFE08B1FF2019E008EBD5030433009305F00705019500230293504606A91A46FFF742FF5D460134E4B23B78A342B3D86B1EDB086C
:40094000013388F80330002009B0BDE8F08F00BF2DE9F04387B090F87E30002B69D0836801EBC1077F00DC5D14F0010463D10E46054643691B890B441FFA83F8002303939B
:400980000493059303AAFFF771FF8146002855D1AC683C44E288BDF80C309A420CD1627A9DF80F309A4207D104F10A0004A9082204F016FC002840D06B6853F838305A6C74
:4009C000B2F80090DB6AB3F80080B9F1000F0ED0B4F9020002F044FFAC683C440023009328463146174A4B4602F0EAFE6080B8F1000F17D0AB683B44B3F9040002F030FFF5
:400A0000AC683C4400230093284631460E4A642303FB08F302F0D4FEA080AA68D35D43F00103D3552846314603AAFFF7ADFE012404E0002402E0002400E04C46204607B035
:400A4000BDE8F0834D0A0000310D000038B5826801EBC1035B001A444FF6FF755580826813440022DA80C9B2FFF772FF38BD00BF2DE9F04F8DB0074604918B780593002B6E
:400A800040F0A7804569AB8882699488002B40F098801AE1022A02D0042A14D095E0786850F833004669D6F800E0049E3688B64504D1426C12880692042286E00131C9B203
:400AC00001339BB281E0EB887A68079119444FEAC10A52F83130D3F808904FF0000B5C4652E000238DF824308DF825308DF826308DF827308DF828308DF829308DF82A3073
:400B00008DF82B307B6853F80A20631C03EB43039B0013449E68002E33D0356815F0FF082CD0EDB20BEB0503049AD278B3EBC20F24DC049B03EBDB0109AB009300230193A1
:400B40000293404604310BF00702FFF733FE013DED1001350CAB43F8105D3268009300230193012302933846110CC2F3072209ABFFF76AFD28B9C3445FFA8BFB0134E4B271
:400B800002E0FF230593A0E099F80030A342A8D8069D002D00F09980FB68002B00F09580079E33F9160002F05BFEFC683A6900230093384631462B4602F002FE24F816000E
:400BC00083E00022114606920222A3427FF662AF7BE0059B012B73D143691B8982691089002B66D1059370E0042A11D0052A4AD0012A60D1796851F8331049690D68049984
:400C000009888D424FD00134E4B201339BB252E07A6852F83320126A1278FD2A45D0FC2A10D1BD6804EBC4025200A918AA5C12F0010F3CD0D7F850010631FFF723FA002351
:400C4000059342E0931CDBB2012B3CD8BE68122505FB04F52E44B6F9020002F001FE7080BE682E44B6F9040002F0FAFDB080BA68535D23F00103535538462146FFF7E6FE30
:400C80000023059321E03846214609AAFFF7EEFD059028B9D7F8500109A9FFF7F3F914E0FF23059311E0042205E0052203E0052201E001220024834296D90023059304E0FF
:400CC0000023059301E0FF23059305980DB0BDE8F08F00BFF8B590F87E3033B3022A24D3032A01D9052A20D1044643684269158903EBC5054D1B8768C5F3C70505EBC506C2
:400D000076003744B7F9020002F0AAFD7880A7683744B7F9040002F0A3FDB880A36800229A5520462946FFF791FE0020F8BD00BF38B5826801EBC1035B001A444FF6FF7574
:400D400095808468E25C22F00102E254C9B2FFF7FFFD38BD704700BF2DE9F04385B043691D8983691E8990F87E30002B00F09880002D00F0978088460446002101910291B3
:400D8000039103230F4686E0052B6CD00B2B71D0032B75D1636853F835305A691268002A70DB1B6AB8F1000F1DD01A78DAB1F02A19D8A06807EBC7014900425C0132D2B288
:400DC0004254187882420ED1A268002353540193029303932046394601AAFFF747FD002852D00B2357E0B8F1000F21D01A78FC2A1ED1A36807EBC7094FEA490903EB09027D
:400E0000204639460632FFF731FD40B1A26812F8093023F0010302F809300B233BE0A26812F8093043F0010302F809300B2332E0B8F1000F01D01A787AB1B8F1000F25D1B5
:400E40001B780233DBB2012B22D8A26807EBC7035B00D35C13F0010F1CD120463946FFF777FD0B2317E02046394601AAFFF78CFC0B2310E0791CCFB20135ADB203230AE04C
:400E8000FF2010E00B2306E0052304E00B2302E00B2300E00B23B5427FF676AF002002E0002000E0002005B0BDE8F083F0B583B0064643691C8983691F899CB916E030466D
:400EC00029466A4601ABFFF741FC009B2BB9019B1BB1094A9A60DA605A610135ADB20134A4B201E04FF4C055BC42E8D930460021FFF732FF03B0F0BDD50C00002DE9F84363
:400F000043691E898369B3F808900EBBBDE8F883D8F8087005EBC50464002744B7F9020002F09EFC7880D8F808702744B7F9040002F096FCB880D8F8082000231355D8F8CA
:400F400008201444E3800135EDB20136B6B201E0804600254E45DBD9BDE8F88370B586B00B4601EB810212010244526B2AB98A000A4412010244916B51639D00EA18120140
:400F80000244516B06AC44F8041D118E92F832202B441B01034400940124019402943C33FFF752FB0028FFD006B070BD70B586B005460C4606AE202346F8043D8B005A18F8
:400FC00012010244118E92F8322023441B01034400960DF1130601960126029603963C33FFF7D0FA38B9A20013191B012B44059959639863FFE706B070BD00BFF0B501EBD0
:40100000810424010444D4F838E00EEB0204202C23D80F4601EB81052D0105446D6BAC421DD800240BE00EEB040607EB87052D010544354495F83C501D550134E4B29442EF
:40104000F1D38C0063181B0103449B6B1A442144090101448A630020F0BDFF20F0BDFF20F0BD00BFF0B501EB810424010444D4F838C00CEB0204202C1DD80F4600240CE02F
:401080000CEB040613F804E007EB87052D010544354485F83CE00134E4B29442F0D38C0063181B0103449B6B1A442144090101448A630020F0BDFF20F0BD00BF2DE9F043C5
:4010C00083B005460C4690461F469DF82C60B31EDBB2032B0DD800230093224A40F6B83302F06EFB04EB84031B012B44A3F872000FE04FEA810909EB01031B010344B3F9EE
:40110000720002F0ADFB09EB04031B012B44A3F87200A1000B191B012B4403F1280E83F828801F869DF8280083F8320083F82A60002083F82B005863986383F85C0083F891
:401140005D0083F85E00186683F8640083F8650083F8660083F8670083F87000586703B0BDE8F0836D13000070B582B006460D4600240094019422462346FFF79FFF234633
:4011800008E005EB8501090131441944002281F83C2001331F2BF4D9A9004B191B013344002283F8292028335A6002B070BD00BF38B50546002405E028462146FFF7D4FF9B
:4011C0000134E4B2002CF7D038BD00BF30B4002310E003EB83042401044494F82A403CB9137003EB83052D01054485F8291004E00133DBB2002BECD0FF24204630BC7047DB
:4012000070B400241EE004EB84052D01054495F82A50ADB1852D13D004EB84052D01054495F828508D420BD104EB84063601064496F82950954203D143B11C70002006E0AE
:401240000134E4B2002CDED0FF2000E0002070BC704700BF01EB81031B0103445B6B0BB9136006E001EB810109010144896B5B1A13600020704700BF202A06D801EB81018D
:40128000090101444A6300207047FF20704700BF10B584B090F87840052C01D07F2C38D1012911D1416909788CB2002C33D00A44816909788A4230DC416851F83220126AE2
:4012C0001288ADF804200EE04169498839B30A44816949888A4224DC416851F8322052691288ADF8042000228DF8062008218DF8071006E09C5C04A9114401F8084C01320D
:40130000D2B2072AF6D9D0F8500101A9FEF7BAFE08E0FF2006E0FF2004E0FF2002E0FF2000E0FF2004B010BD30B583B0079C80258DF800508DF801301B0A8DF802309DF8CD
:4013400018308DF803308DF80440C4F307238DF80530C4F307438DF80630240E8DF807406B46FFF795FF03B030BD00BF2DE9F04383B0044643695A88002A42D00D4601EBE6
:4013800081031B01034493F82830134482695288934236DC426852F83330DB6A93F80080880008440001204400F170074FF6FF73A0F8723000F12806852380F82A3090F806
:4013C000291090F82820038E90F832000090DFF83890CDF804902046FFF7A6FFC6F804907B6813B120464146984705EB85031B012344DA6A044B9A4203D12046E9B2FFF716
:40140000B3FE03B0BDE8F083000004052DE9F04784B00546884614461F460DF10F03FFF7EFFE064630B9012C04D128469DF80F10FFF79AFEFEB9022C1DD19DF80F904FEAB4
:40144000890A0AEB09031B012B44B3F9720002F007FAD1444FEA0919A944A9F872009DF80F309900CA1812012A44852082F82A0013460D9ADA629DF8303000930D9B0193B3
:401480002846214642463B46FFF74EFF08B1FF2000E0002004B0BDE8F08700BF2DE9F04F89B046693378876997F800E0BBB9032419E0446804EBC3052D79012D41F2CB850F
:4014C00054F83340646925680C88A54202D10292012408E00132D2B201339BB200E000227345E6D90324032C27D17388B7F802C0EBB94FF0000922E0426802EBC30E9EF88D
:4015000004E0BEF1030F41F2A88552F833703A6A16680A88964205D10295FB6A93F8009002240CE00135EDB201339BB200E000256345E1D94FF0000901E04FF00009032CD1
:4015400001F08D858A468346CB78082B0BD0002300934FF00062019202992246FFF756FFFF2501F09DBD029922460DF11F03FFF747FE0346E8B9012C09D19DF81F2002EBC7
:40158000820212015A4492F82A20042A0BD0022C11D19DF81F2002EB820212015A4492F82A20052A09D19AF80420802A07D1042206E0FF2204E0FF2202E0FF2200E00622C1
:4015C000FF2A02D19AF804205209062A01F24985DFE812F007007F01190395043B067F06B609012C40F0BC8053B99DF81F3003EB83031B015B4493F82A30023B18BF01238E
:401600005BB100230093C94A0192584602992246FFF7FCFEFF2501F043BD9DF81F5005EB85031B015B44B3F8720003B2B3F1FF3F19D0184602F014F905EB85052D015D4422
:40164000A5F872009DF81F500023009358462946B74A40F6B83302F0B3F805EB85052D015D44A5F872009DF81F108B005A1812015A44178E92F8328092F82B209AF804308F
:40168000C3F3001090420CD0CDF80080A94B01935846029922463B46FFF7B8FEFF2501F0FFBC6FEA530303F00702069258460AF10503FFF7D7FC68B1CDF800804FF000639E
:4016C00001935846029922463B46FFF79FFEFF2501F0E6BC9DF81F30502202FB03B393F82B301B0143F020038DF81030012305E008AA1A44002102F8101C0133072BF7D92E
:4017000058462146029A04ABFFF7C2FD9DF81F10502303FB01B393F82B20B2FA82F2520983F82B209AF8045015F0010501F0B8845846FFF713FC58B1CDF800800190584666
:40174000029922463B46FFF761FEFF2501F0A8BC58469DF81F10FFF707FD002501F0A0BC53B99DF81F3003EB83031B015B4493F82A30033B18BF01235BB1002300936B4A95
:401780000192584602992246FFF740FEFF2501F087BC9DF81F5005EB85031B015B44B3F8720003B2B3F1FF3F19D0184602F058F805EB85052D015D44A5F872009DF81F5099
:4017C0000023009358462946594A40F6B83301F0F7FF05EB85052D015D44A5F872009DF81F108B005A1812015A44158E92F8327092F82B209AF80430C3F3001090420BD0D4
:4018000000974C4B01935846029922462B46FFF7FDFDFF2501F044BC6FEA530303F00702069258460AF10503FFF71CFC60B100974FF0006301935846029922462B46FFF7F7
:40184000E5FDFF2501F02CBC9DF81F108B000B441B015B4403F1280293F82B30B3FA83F35B09D3709AF8045015F001051AD0502505FB01B101F17004B1F9720001F0F0FFFE
:4018800060809DF81F3005FB03B3012283F82A205B6F002B01F0E783584649469847002501F0FEBB1B0143F060038DF81030012305E008AA1A44002102F8101C0133072B5E
:4018C000F7D958462146029A04ABFFF7E1FC01F0E7BB012C40F0B6809AF806809AF8052042EA08281FFA88F59AF807705BB900970E4B01935846029922462B46FFF786FDE2
:40190000FF2501F0CDBB584621460DF11F02FFF75DFC88B10097054B01935846029922462B46FFF773FDFF2501F0BABB210000086D130000000003059DF81F1000970223B0
:4019400001935846029A2B46FFF7B8FB9AF8043013F0020F34D0C3F38103C3F1040206929DF81F10502303FB01B35A6358460AF10803FFF777FB60B100974FF00063019385
:401980005846029922462B46FFF740FDFF2501F087BB58469DF81F10FFF7E0FA50B1009701905846029922462B46FFF72FFDFF2501F076BB58469DF81F10FFF7D5FB24E08A
:4019C00013F0010F21D09AF808309AF8092003EB02239AF80A2003EB02439AF80B2003EB0262069258469DF81F10FFF745FC60B100974FF0006301935846029922462B462C
:401A0000FFF704FDFF2501F04BBB60238DF810308DF811802D0A8DF812508DF81370042305E008AA1A44002102F8101C0133072BF7D958462146029A04ABFFF729FC0025E7
:401A400001F02EBB53B99DF81F3003EB83031B015B4493F82A30023B18BF01235BB100230093CE4A0192584602992246FFF7CEFCFF2501F015BB9DF81F5005EB85031B0105
:401A80005B44B3F8720003B2B3F1FF3F19D0184601F0E6FE05EB85052D015D44A5F872009DF81F500023009358462946BC4A40F6B83301F085FE05EB85052D015D44A5F817
:401AC00072009DF81F108B005A1812015A44158E92F8327092F82B209AF80430C3F3001393420BD00097AF4B01935846029922462B46FFF78BFCFF2501F0D2BA584606AA7C
:401B0000FFF7A8FB069ADAB99DF81F40502505FB04B4B4F9720001F0A3FEA4F872009DF81F3005FB03B3012283F82A205B6F002B01F09B82584649469847002501F0B0BAE8
:401B4000072A23D99DF81F10502202FB01B292F82B30B3FA83F35B0982F82B301B018DF81030584607220DF11103FFF747FA002840D000974FF0006301935846029922467A
:401B80002B46FFF743FCFF2501F08ABA9DF81F104FF0500E0EFB01BE9EF82B30B3FA83F040098EF82B00C2F107035B0043EA001343F001038DF8103058460DF11103FFF7F8
:401BC0001DFA60B100974FF0006301935846029922462B46FFF71AFCFF2501F061BA069B013305E008AA1A44002102F8101C0133072BF7D958462146029A04ABFFF748FBD2
:401C0000002501F04DBA012C40F0AE809AF806709AF8052042EA0727BDB29AF8078063B9CDF800805D4B01935846029922462B46FFF7ECFBFF2501F033BA584621460DF1CA
:401C40001F02FFF7C3FA60B1CDF80080534B01935846029922462B46FFF7D8FBFF2501F01FBA9DF81F10CDF80080032301935846029E32462B46FFF721FA58469DF81F10E2
:401C8000FFF794F958B1CDF8008001905846314622462B46FFF7BAFBFF2501F001BA58469DF81F1006AAFFF7D5FA069A042A1FD941238DF810308DF811702D0A8DF812506F
:401CC0008DF813808DF81420C2F307238DF81530C2F307438DF81630120E8DF8172058462146029A04ABFFF7D3FA002501F0D8B9C2F104039B0043F043038DF810308DF8F2
:401D000011702B0A8DF812308DF8138058469DF81F1005ABFFF772F968B1CDF800804FF0006301935846029922462B46FFF76EFBFF2501F0B5B9069B043305E008AA1A4446
:401D4000002102F8101C0133072BF7D958462146029A04ABFFF79CFA58469DF81F10FFF703FA002501F09CB953B99DF81F3003EB83031B015B4493F82A30033B18BF01230D
:401D800093B100230093054A0192584602992246FFF73CFBFF2501F083B900BF210000086D130000000003059DF81F5005EB85031B015B44B3F8720003B2B3F1FF3F19D0E4
:401DC000184601F04DFD05EB85052D015D44A5F872009DF81F500023009358462946BF4A40F6B83301F0ECFC05EB85052D015D44A5F872009DF81F108B005A1812015A445E
:401E0000178E92F832809AF80430C3F34005002D3CD0C3F38103C3F10402069258460AF10803FFF71FF968B1CDF800804FF0006301935846029922463B46FFF7E7FAFF25D8
:401E400001F02EB99DF81F40A5002B191B015B44B3F9720001F004FD2C4424015C44A4F872009DF81F309900CA1812015A4406985063012082F82A00536F002B01F0F78024
:401E8000584649469847002501F00AB913F0010F20D09AF808309AF8092003EB02239AF80A2003EB02439AF80B2003EB026206925846FFF7E1F968B1CDF800804FF000639E
:401EC00001935846029922463B46FFF79FFAFF2501F0E6B860238DF81030012305E008AA1A44002102F8101C0133072BF7D958462146029A04ABFFF7CBF901F0D1B8012C5B
:401F000040F0D28053B99DF81F3003EB83031B015B4493F82A30033B18BF01235BB1002300936F4A0192584602992246FFF76EFAFF2501F0B5B89DF81F5005EB85031B01BB
:401F40005B44B3F8720003B2B3F1FF3F19D0184601F086FC05EB85052D015D44A5F872009DF81F5000230093584629465B4A40F6B83301F025FC05EB85052D015D44A5F877
:401F800072009DF81F108B005A1812015A44158E92F8327092F82B209AF80430C3F3001393420BD000974F4B01935846029922462B46FFF72BFAFF2501F072B8584606AADB
:401FC000FFF748F9069A072A32D99DF81F10502303FB01B393F82B301B018DF81030584607220DF11103FFF709F860B100974FF0006301935846029922462B46FFF706FA68
:40200000FF2501F04DB89DF81F30502202FB03B393F82B20B2FA82F2520983F82B2058462146029A04ABFFF733F9002501F038B89DF81F10502303FB01B393F82B00C2F19C
:4020400007035B0043EA001343F001038DF8103058460DF11103FEF7D1FF60B100974FF0006301935846029922462B46FFF7CEF9FF2501F015B8069B013305E008AA1A44F1
:40208000002102F8101C0133072BF7D958462146029A04ABFFF7FCF858469DF81F10FFF763F8002500F0FCBF53B99DF81F3003EB83031B015B4493F82A30023B18BF0123AA
:4020C00093B100230093064A0192584602992246FFF79CF9FF2500F0E3BF00BF6D13000021000008000003059DF81F5005EB85031B015B44B3F8720003B2B3F1FF3F19D0DD
:40210000184601F0ADFB05EB85052D015D44A5F872009DF81F500023009358462946D14A40F6B83301F04CFB05EB85052D015D44A5F872009DF81F108B005A1812015A444B
:40214000158E92F83270584606AAFFF783F8069A0ABB9DF81F40A5002B191B015B44B3F9720001F07DFB2C4424015C44A4F872009DF81F309900CA1812015A44012082F85F
:402180002A00536F002B00F07487584649469847002500F085BF072A1FD99DF81F1001EB81031B015B4493F82B301B018DF81030584607220DF11103FEF720FF00283BD0B9
:4021C00000974FF0006301935846029922462B46FFF71CF9FF2500F063BF9DF81F1001EB81031B015B4493F82B00C2F107035B0043EA001343F001038DF8103058460DF12A
:402200001103FEF7FBFE60B100974FF0006301935846029922462B46FFF7F8F8FF2500F03FBF069B013305E008AA1A44002102F8101C0133072BF7D958462146029A04AB1D
:40224000FFF726F8002500F02BBF9AF808209AF8091042EA01229AF80A5042EA05429AF80B5042EA0565012C0AD1002B40F0038758469DF81F10FEF777FF002500F010BF17
:40228000002B40F0FA869DF81F40A60033191B015B44B3F9720001F0E3FA344424015C44A4F872009DF81F309900CA1812015A44802082F82A00D5620B441B015B445B6F0C
:4022C000002B00F0DC86584649469847002500F0E7BE9AF8045005F00305012C40F0C581002D7FD19AF806809AF8052042EA08281FFA88F59AF807705BB900975A4B0193EA
:402300005846029922462B46FFF780F8FF2500F0C7BE584621460DF11F02FEF757FF58B10097514B01935846029922462B46FFF76DF8FF2500F0B4BE9DF81F1000970523CF
:4023400001935846029E32462B46FEF7B7FE9DF81F109AF80420502303FB01B3C2F3800283F85C209AF8082083F85D205846FEF71DFE50B1009701905846314622462B46B4
:40238000FFF744F8FF2500F08BBE58469DF81F1006AAFEF75FFF9DF81F20069B502101FB02B21366C2228DF810208DF811802D0A8DF812508DF813708DF81430C3F307229D
:4023C0008DF81520C3F307428DF816201B0E8DF8173058462146029A04ABFEF759FF002500F05EBE012D1FD14BB99DF81F30502202FB03B393F82A30053B18BF01235BB14F
:4024000000230093184A0192584602992246FEF7FDFFFF2500F044BE58469DF81F10FEF7A3FE002500F03CBEAA1ED2B2012A00F228864BB99DF81F30502202FB03B393F893
:402440002A30053B18BF012383B100230093064A0192584602992246FEF7D8FFFF2500F01FBE00BF6D130000210000089DF81F80502303FB08B3B3F8720003B2B3F1FF3F20
:4024800017D0184601F0ECF94FF0500909FB08B8A8F872009DF81F700023009358463946CC4A40F6B83301F08BF909FB07B7A7F872009DF81F10502303FB01B31F8E93F8FC
:4024C0003280022D50D19AF80620502303FB01B383F85D209AF8055005F07F05584606AAFEF7B8FE069B2BBB9DF81F30502202FB03B292F86520AA421CD1502202FB03B310
:4025000093F866309B0063F03E038DF81030012305E008AA1A44002102F8101C0133072BF7D958462146029A04ABFEF7B1FE002500F0B6BD9DF81F30502202FB03B292F8E2
:402540006430C5EBC5052B449363526B93420BD900230093A04A0192584602992246FEF755FFFF2500F09CBD9DF81F30502202FB03B393F8382083F86420012568E003EBA1
:4025800083031B015B4483F8655058469DF81F1006AAFEF75FFE069A072A21D98DF8105058469DF81F1007220DF11103FEF726FD68B1CDF800804FF0006301935846029914
:4025C00022463B46FEF722FFFF2500F069BD58462146029A04ABFEF75BFE0135EDB237E065F07F058DF8105058469DF81F100DF11103FEF703FD68B1CDF800804FF00063F1
:4026000001935846029922463B46FEF7FFFEFF2500F046BD069B013305E008AA1A44002102F8101C0133072BF7D958462146029A04ABFEF72DFE9DF81F30069AC2F10702E4
:40264000502000FB03B080F86620002500F028BD9DF81F3003EB830212015A4492F85D20AA428CD2002500F01BBD15B1022D40F0398153B99DF81F3003EB83031B015B4400
:4026800093F82A30043B18BF01235BB100230093514A0192584602992246FEF7B7FEFF2500F0FEBC9DF81F9009EB89031B015B44B3F8720003B2B3F1FF3F1BD0184601F085
:4026C000CFF809EB89094FEA0919D944A9F872009DF81F9000230093584649463D4A40F6B83301F06DF809EB89094FEA0919D944A9F87200BDB99DF81F309800C2181201ED
:402700005A44118E039192F832809AF80410C1F3800182F85C109AF8082003441B015B4483F85D205AE09DF81F109AF8062001EB81031B015B4483F85D209AF8055005F062
:402740007F05584606AAFEF785FD069B33BB9DF81F3003EB830212015A4492F86520AA421CD1502202FB03B393F866309B0063F03E038DF81030012305E008AA1A4400211D
:4027800002F8101C0133072BF7D958462146029A04ABFEF77DFD002500F082BC9DF81F309800C21812010BEB020191F86420C5EBC5052A448A634B6B9A420FD90023009337
:4027C000054A0192584602992246FEF71FFEFF2500F066BC6D130000210000089DF81F309900CA1812015A4492F838200B441B015B4483F86420012568E003EB83031B016C
:402800005B4483F8655058469DF81F1006AAFEF721FD069A072A21D98DF8105058469DF81F1007220DF11103FEF7E8FB68B1CDF800804FF000630193584602992246039BAC
:40284000FEF7E4FDFF2500F02BBC58462146029A04ABFEF71DFD0135EDB237E065F07F058DF8105058469DF81F100DF11103FEF7C5FB68B1CDF800804FF000630193584623
:4028800002992246039BFEF7C1FDFF2500F008BC069B013305E008AA1A44002102F8101C0133072BF7D958462146029A04ABFEF7EFFC9DF81F30069AC2F1070203EB8303C1
:4028C0001B015B4483F866200025E9E39DF81F3003EB830212015A4492F85D20AA428CD20025DDE3012D20D19DF81F40A5002B191B015B44B3F9720000F0B2FF2C442401E2
:402900005C44A4F872009DF81F309900CA1812015A44012082F82A00536F002B00F0B3835846494698470025BAE300230093D34A0192584602992246FEF768FDFF25AFE31C
:40294000012C40F0EE81002B76D09AF8043013F0010F0AD000230093C84A0192584602992246FEF753FDFF259AE39AF806709AF8053043EA0727BDB29AF8078058462146CE
:402980000DF11F02FEF722FC58B1CDF80080BB4B01935846029922462B46FEF737FDFF257EE39DF81F10CDF80080042301935846029A2B46FEF782FB9DF81F30502202FB09
:4029C00003B2012182F867109AF80410C1F3800182F85C109AF8042012F0020F11D09AF808209AF80A009AF80BE09AF8091000EB0E2001EB002102EB0122502101FB03B3CD
:402A00001A66A0238DF810308DF811702D0A8DF812508DF8138010238DF8143000258DF817508DF816508DF8155058462146029A6B44FEF72DFC33E39DF81F5005EB850370
:402A40001B015B4493F86730012B40F0C08005EB85031B015B44B3F8720003B2B3F1FF3F16D0184600F0FCFE502707FB05B5A5F872009DF81F500023009358462946804AF5
:402A800040F6B83300F09CFE07FB05B5A5F872009AF8043003F07F0513F0800F44D09DF81F10502202FB01B292F865200132954213D1502303FB01F30BEB0302022182F8DD
:402AC000671082F8655068330BEB0302514651F8040F49684BF803005160A2238DF810309DF81F30502707FB03B393F865308DF8113010238DF8123000258DF817508DF8EC
:402B000016508DF815508DF814508DF8135058462146029A6B44FEF7BBFB9DF81F3007FB03B383F86550BBE29DF81F10502303FB01B393F8653001339D421ED1502303FB94
:402B400001B383F86550584607220AF10503FEF789FA90B19DF81F30502202FB03B2138E92F8322000924FF000620192584602992246FEF74BFCFF2592E2102D40F08582BA
:402B8000A2238DF810309DF81F30502707FB03B393F865308DF8113010238DF8123000258DF817508DF816508DF815508DF814508DF8135058462146029A6B44FEF768FB39
:402BC0009DF81F3007FB03B383F8655068E2022B40F05D829AF8043013F0010F0AD100230093264A0192584602992246FEF70EFCFF2555E2502303FB05B3B3F8720003B220
:402C0000B3F1FF3F16D0184600F02AFE502707FB05B5A5F872009DF81F500023009358462946174A40F6B83300F0CAFD07FB05B5A5F872009AF80420C2F382029DF81F1096
:402C4000502303FB01B35846C2F107026933FEF709FAB8B19DF81F30502202FB03B2138E92F8322000924FF000620192584602992246FEF7CBFBFF2512E200BF2100000831
:402C80006D1300009DF81F30502202FB03B2116EA9B1502202FB03B2926B91420FD0502202FB03B2138E92F832200092D44A0192584602992246FEF7A9FBFF25F0E1A12309
:402CC0008DF81030012305E008AA1A44002102F8101C0133072BF7D958462146029D2A4604ABFEF7D5FA58469DF81F10FEF736F980B19DF81F30502202FB03B2138E92F808
:402D0000322000920190584629462246FEF77EFBFF25C5E158469DF81F10FEF725FA0025BEE153B100230093B54A0192584602992246FEF76BFBFF25B2E19DF81F5005EB44
:402D400085031B015B44B3F8720003B2B3F1FF3F19D0184600F084FD05EB85052D015D44A5F872009DF81F500023009358462946A44A40F6B83300F023FD05EB85052D01BE
:402D80005D44A5F872009DF81F1001EB81031B015B4493F86730002B3ED19AF8045015F0010540F076818B000B441B015B44012283F867209AF80420C2F3800283F85C2062
:402DC0009AF8043013F0020F12D09AF808309AF80A009AF80B709AF8092000EB072002EB002203EB022301EB8101090159440B66A3238DF81030012305E008AA1A4400216A
:402E000002F8101C0133072BF7D958462146029A04ABFEF73DFA43E1012B40F09C809AF8043003F07F0513F0800F42D0502303FB01B393F8653001339D4213D1502303FB90
:402E400001F30BEB0302022182F8671082F8655068330BEB0302514651F8040F49684BF803005160A2238DF810309DF81F30502707FB03B393F865308DF8113010238DF8B4
:402E8000123000258DF817508DF816508DF815508DF814508DF8135058462146029A6B44FEF7F6F99DF81F3007FB03B383F86550F6E001EB81031B015B4493F865300133C4
:402EC0009D421ED1502303FB01B383F86550584607220AF10503FEF7C5F890B19DF81F30502202FB03B2138E92F8322000924FF000620192584602992246FEF787FAFF256C
:402F0000CEE0102D40F0C780A2238DF810309DF81F30502707FB03B393F865308DF8113010238DF8123000258DF817508DF816508DF815508DF814508DF8135058462146F6
:402F4000029A6B44FEF7A4F99DF81F3007FB03B383F86550A4E0022B40F09F809AF8043013F0010F0AD100230093254A0192584602992246FEF74AFAFF2591E0C3F3820293
:402F8000502303FB01B35846C2F107026933FEF769F890B19DF81F30502202FB03B2138E92F8322000924FF000620192584602992246FEF72BFAFF2572E09DF81F3050228D
:402FC00002FB03B2116EA9B1502202FB03B2926B91420FD0502202FB03B2138E92F832200092074A0192584602992246FEF70EFAFF2555E0A1238DF8103001230AE000BF0F
:40300000210000086D13000008AA1A44002102F8101C0133072BF7D958462146029A04ABFEF736F99DF81F40502505FB04B4B4F9720000F015FCA4F872009DF81F3005FBB3
:4030400003B3012283F82A205B6F43B3584649469847002524E0FF2522E0FF2520E0FF251EE0FF251CE000251AE0002518E0002516E0002514E0002512E0002510E0002570
:403080000EE000250CE000250AE0002508E0002506E0002504E0002502E0002500E00025284609B0BDE8F08F08B50A88D3090E2B2ED8DFE803F028082D161616161616164A
:4030C000161C1C2D2200802A05D190F87C30FBB100F02CFA08BD90F87B30CBB1FDF7A4F808BD90F87E309BB1FDF7C2FC08BD90F87A306BB1FEF7D2F908BD90F87D303BB107
:40310000FDF7E2F808BD036A1B780BB1FDF7CCF908BD00BF38B504460D464B7833B190F87A201AB9012380F87A300AE04BB994F97A30012B05D1002384F87A302046FEF7CC
:4031400037F8EB784BB194F87C2032B9012384F87C30204600F09EF90AE04BB994F97C30012B05D1002384F87C30204600F07CF92B794BB194F87D2032B9012384F87D3035
:403180002046FDF719F90AE04BB994F97D30012B05D1002384F87D302046FDF745F9AB784BB194F87B2032B9012384F87B302046FDF728F80AE04BB994F97B30012B05D177
:4031C000002384F87B302046FDF72CF86B794BB194F87E2032B9012384F87E302046FDF765FE0AE04BB994F97E30012B05D1002384F87E302046FDF781FE2B7833B194F8A3
:4032000079201AB9012384F8793038BD4BB994F97930012B05D1002384F879302046FDF799F938BD10B582B0044690F878308B426CD0042954D001D829B16AE0052938D081
:403240007F2919D065E001238DF8003000238DF801308DF802308DF803308DF804308DF805308DF8063080F878306946FFF752FFD4F8803020469847294B186800909A88AC
:403280009B79ADF804208DF806307F2384F8783020466946FFF73EFF236A1B7823B9204600218122FDF7EAF8D4F88430204698472CE083B31A4B53F8080F00909A889B79D8
:4032C000ADF804208DF80630052384F8783020466946FFF71FFFD4F888302046984715E0DBB10F4B53F8100F00909A889B79ADF804208DF80630042384F87830204669461D
:40330000FFF708FFD4F88C302046984794F8780004E0FF2002E0FF2000E0FF2002B010BD2C52000003681878704700BFF0B585B004468E4643691B7899B24FFA8EF2002AD9
:4033400040F38480F9B1426852F8332051690D680268127802F5C060854201D0FF2A02D10EF5C0620A60626852F833301A6A106823681B7803F5B061884201D0FF2B02D196
:403380000EF5B063136063699D88A3699F88304B0FCB04AE06E90F00CDB91DE0626852F83520506904AA02EB830252F8102C2168097802EB010C0668664501D0FF2901D128
:4033C000724402600133DBB20135ADB200E00023BD4201D8032BE1D963691D89A3691F891C4B0FCB04AE06E90F00CDB91DE0626852F83520506904AA02EB830252F8102C3A
:403400002168097802EB010C0668664501D0FF2901D1724402600133DBB20135ADB200E00023BD4201D8032BE1D9D4F88421106823681B7803F18001884201D0FF2B02D15F
:403440000EF180031360236883F800E005B0F0BD4452000054520000704700BF704700BF704700BF704700BF10B5044641F2050100221346FDF772F9204641F20601002217
:403480001346FDF76BF9B4F9300100F0E9F9A4F8300110BD30B583B00446B0F93031B3F1FF3F01D0FFF7E0FF114D204641F2050100222B46FDF752F9204641F2060100228C
:4034C0002B46FDF74BF9D4F834311B6813F0804F0BD0D4F838311B683BB1009320460021044A00F06DF9A4F8300103B030BD00BFF93400006D35000008B5FFF7CBFF0020C8
:4035000008BD00BF00B585B0D0F834311B88ADF8043000238DF806308DF80730D0F8500101A9FCF7AFFD05B05DF804FB38B50446D0F83C31984794F87E3053B1204601215E
:40354000FDF70AFC0546D4F8403120469847284638BD002038BD00BF38B50546FFF7D2FF04462846FFF7E2FF204638BD08B5FFF7F3FF08BD704700BF704700BF9F2803D173
:403580000B781BB9002070470020704700487047300009060023136041F60123984200F0C2804AD841F21703984200F09E8026D841F20503984200F086800DD841F201034F
:4035C000984200F0DC8041F20303984277D0B0F5805F40F0CE80D0E041F2100398427AD004D841F20603984271D0C2E041F21103984274D041F21403984274D0B9E041F6BD
:40360000010398427DD00BD8B0F5905F73D0B0F5C05F72D041F21803984240F0AA8068E041F60303984274D06FD341F60403984273D0B0F5D05F74D09BE042F20503984234
:4036400000F083801BD8B0F5005F74D009D841F6032398426BD068D341F60423984268D087E042F20203984269D066D342F20303984266D042F20403984264D079E042F212
:403680000A0398426BD00DD842F20703984260D05DD342F2080398425DD042F2090398425BD066E042F20C0398425CD059D3B0F5E04F5AD047F20103984258D059E0334B51
:4036C000136002205CE0324B1360032058E0314B1360042054E0304B1360052050E02F4B136006204CE007204AE02D4B1360082046E0092044E00A2042E02A4B13600B20AF
:403700003EE0294B13600C203AE0284B13600D2036E0274B13600E2032E0264B13600F202EE010202CE011202AE0122028E0132026E0142024E0152022E0162020E0172009
:403740001EE018201CE019201AE01A2018E01B2016E01C2014E01D2012E01E2010E01F200EE020200CE021200AE0222008E0232006E0114B0B6000207047002000E001205E
:4037800000230B600D4B03EBC0007047DC88FF1F0089FF1F0489FF1F0889FF1F1C89FF1F3089FF1F3489FF1F4C89FF1F6489FF1F7C89FF1F9489FF1F0000020664520000AC
:4037C0002DE9F0479846244E002432E072B3337863BBAF4204D10EF1010E204DA5F800E0474690468946824600F0B8F805464FF6FF70B84228BF3846184B5B68AB4207D95F
:403800005B1B834204D92A18144B5A6000F096F8C6F80880C6F804A0C6F80C903D443561089B736101233370A0B212E00134A4B2183627B2094DB5F800E00FFA8EF50135A5
:40384000AF4204DC072FC1DD4FF6FF7001E04FF6FF7000B2BDE8F087208AFF1F9088FF1FB0F1FF3F0DD0084B1B881AB2904202D1013B054A138000EB4000C0000022034BF2
:403880001A544FF0FF3070479088FF1F208AFF1F70B500F063F80646264B5D680544264C4FF6FF70002321E0227812F0010F1AD02269AA420FD8626912B90222227012E0C0
:4038C000B6FBF2F102FB1161521A226103212170904205D807E0521B2261904202D802E0104600E0104601339BB218341AB21149B1F900108A42D7DD0E4B586000F01EF83D
:403900000D4D00240EE02B7813F0020F07D023F002032B70AB6813B16868E96898470134A4B2183523B2034AB2F900209342EADD70BD00BF9088FF1F208AFF1F054A1368EE
:403940001844054B1968B0FBF1F301FB13005060704700BFE48AFF1F9888FF1F054B1B68054A5068834201D9181A00E0C01A024A53607047E48AFF1F9888FF1F08B50A4B95
:403980001A680A4B1B689A4202D30022064B1A60054B1A685B689A4201D1FFF779FF024A13680133136008BDE48AFF1F9888FF1F10B5044600F0010001F04CF9C4F3400034
:4039C00001F0C8F9C4F3800001F0D0F910BD00BF0022824B1A60824B1A78AA2A05D0814BDB7DDBB2112B40F0F780A02A00F0F48010B501F09BF900F00C0008281BD1794B3F
:403A00005B7CDBB2022B16D801F090F910F0010F11D0052001F07AF801F088F910F0010F09D0704C207B01F07BF96F4B1A796F4B1A70042363746B4B5B7CDBB2052B00F232
:403A4000CA80DFE803F003213E6184A61122654BDA7501F06BF910F0200F0AD1614C607A01F05EF9604B5A78604B1A700123637410BD5C4C207A01F053F95B4B1A785B4B1E
:403A80001A700023637410BD01F050F910F0200F0CD1544CA07A01F043F9534B9A78534B1A70022363740023E38110BD4D4C207A01F036F94C4B1A784C4B1A7000236374C9
:403AC00010BD484AD38901339BB2D381D18989B213889BB299420CD314460023D381D07A01F01EF9404BDA78404B1A700323637410BD3C4CA07A01F013F93B4B9A783B4B63
:403B00001A700223637410BD364AD38901339BB2D381D18989B253889BB299420CD314460023D381107B01F0FBF82F4B1A792F4B1A700423637410BD2A4CE07A01F0F0F845
:403B4000294BDA78294B1A700323637410BD01F0EDF810F0100F11D101F0E8F810F0100F39D1204C607B01F0DBF81F4B5A791F4B1A70052363740023E38110BD194C207B57
:403B800001F0CEF8184B1A79184B1A700423637410BD144AD38901339BB2D381D3899BB2632B0BD913460022DA8101200B4908605A7405225A7406221A7409E0094C607BB1
:403BC00001F0AEF8084B5A79084B1A7005236374FF22044BDA7510BD704700BFF88AFF1F1B8AFF1F308BFF1FA088FF1F1C8AFF1F10B5B04B1B7CDBB2062B00F24C81DFE849
:403C000013F007002400E300FA001F014A01280101F08CF800F00C00042805D001F086F800F00C00082804D10222A24B1A74002010BD01F07BF800F00C000C2840F02D8105
:403C400001229C4B1A74002010BD01F06FF800F00C000C280AD0974C607B01F061F8964B5A79964B1A700023237485E001F05EF810F0010F3FD1904B9B79002B3BD0112258
:403C80008C4BDA7529E001F051F810F0200F0BD1884C607A01F044F8874B5A78874B1A706288874B1A8007E0824B187A01F038F8814B1A78814B1A7001F038F800F00C0027
:403CC0000C280AD07B4C607B01F02AF87A4B5A797A4B1A700023237404E001F027F810F0010FD0D0734B587B01F01AF8724B5A79724B1A7040E001F019F810F0020F3BD112
:403D00006D4BDB79002B37D000226D4B1A8026E001F00CF810F0100F08D1664B587B00F0FFFF654B5A79654B1A7007E0614B187B00F0F6FF604B1A79604B1A7000F0F6FF4C
:403D400000F00C000C280AD05A4C607B00F0E8FF594B5A79594B1A700023237404E000F0E5FF10F0020FD3D0524B587B00F0D8FF514B5A79514B1A7000F0D8FF00F00C0087
:403D80000C281BD100F0D2FF10F0010F16D0494BDB7A13F0FF0F11D0494BB3F90030002B0CDD444BD87A00F0BBFF454A1388013B13800A2000F0AAFE002010BD3D4B587B3F
:403DC00000F0AEFF002010BD00F0B0FF10F0010F0CD0052000F09AFE00F0A8FF10F0010F5DD00322334B1A74002010BD0222314B1A74002010BD00F099FF10F0010F0DD17E
:403E0000052000F083FE00F091FF10F0010F48D1284B04221A740020987510BD254B03221A749B7D13F0FF0F3DD000F07FFF00F00C000C2839D101221E4B1A74002010BD1A
:403E40001C4B05221A740020D88158741D4B186010BD00F06BFF00F00C00042804D10422144B1A74002010BD00F060FF00F00C00082806D10F4B02221A7401229A7500202D
:403E800010BD00F053FF00F00C000C280FD10120084B187410BD002010BD002010BD002010BD002010BD002010BD002010BD002010BD00BF308BFF1FA088FF1F1C8AFF1FF9
:403EC000EC8AFF1FF88AFF1F70B50E461546002405E0204600F060FF30550134A4B2AC42F7D370BD012A06D008B503460846197800F066FF08BD704700B585B0104801A964
:403F00000B22FFF7E1FF0F4B01AA03CA186059601188927819819A7219780B4A11725978517299789172D978D1721979117359795173D98811801B89538005B05DF804FB6F
:403F400088530000208BFF1F308BFF1F08B500F0F3FE00F071FE00F01BFF00F0D3FEFFF7CBFF054B00221A741A7506225A754FF4FA625A8208BD00BF308BFF1F00B585B0F4
:403F8000084A01AB1068516803C31189927A19809A70054801A90B22FFF7A4FF05B05DF804FB00BF208BFF1F88530000704700BF704700BF704700BF704700BF704700BF4C
:403FC000704700BF704700BF704700BF00B587B04FF47A73ADF816300223049304AB009300220192029241F217010DF11603FCF72BFB07B05DF804FB052A0ED108B5074A6F
:4040000013780133DBB21370012B05D10022034B1A700521FFF706F908BD7047EE8AFF1F0F4BC0F8AC300F4BC0F880300E4BC0F884300E4BC0F888300D4BC0F88C300D4B26
:40404000C0F83C310C4BC0F840310C4BC0F8A8310B4BC0F844310B4BC0F84831704700BFAD3F0000CD3F0000B13F0000B53F0000B93F0000BD3F0000C53F0000C13F00005F
:40408000C93F0000F93F000010B50D4C2046FFF7C7FF20460B4B1978FFF748F920460021FFF7C0F8002300E00133B3F5803FFBD3002300E00133B3F5803FFBD310BD00BF63
:4040C0000C81FF1FA888FF1FFEE700BF08B5104E104D16E029686B68AC68002204E051F8040B43F8040B0432A242F8D1E868002203E0002143F8041B04328242F9D11035D9
:40410000013E002EE6D101F045F8FBF7F1FFFEE7010000004055000008B5124A124B1A60124A136843F40073136000230AE0032B03D80F4A52F8231000E00E490E4A42F837
:40414000231001332F2BF2D90C4B1A780C4B1A70094A0C4B1A6000F0BFF800220A4B1A6008BD00BF0004FA050CED00E014ED00E000000000C94000000080FF1FBC760040D3
:404180000481FF1F08ED00E00081FF1FFEE700BFF0B40022174611E050F82760F3B226F0FF0608E001EB420511F812406D78A5550132013BDBB2002BF4D101371E2FEBD917
:4041C000F0BC7047064B1B78DBB203F00701054A11701B09013213704422034B1A707047CF0100496E5800407658004038B505222A4B1A801C2202331A70412202331A80D2
:404200001823274A1370472102321180023213700222244B1A7008224FF040231A70032203F500731A70204B1B78DBB21F4A137040F242221E4B1A8041F25122023B1A8051
:40424000002419250CE01B4B1B7803F0010343EA440404F003044FF4F07000F045FC013D0DB1032CEFD115B90320FFF78FFF124B4FF480721A8007221A7000220F490A7089
:404280004820023108701A700222033B1A700C4A137843F00703137038BD00BF80400040864000400043004008010049A146004022420040254200400440004006400040C9
:4042C000A243004008B50A46002100F0A4FF08BD08B500F095FF08BD10B572B6334C61232370FFF783FF01232370314A137843F00403137000240CE02E4963001A19520029
:404300000A4423445B00C8589188FFF7DBFF0134E4B2062CF0D94FF090402749FFF738FF264A137843F0020313701032137843F002031370224C237843F040032370A2F50B
:404340008632513A137843F0100313701D481E490822FFF7BDFF1D481D490822FFF7B8FF1C481D490822FFF7B3FF1C481C490822FFF7AEFF1B481C490A22FFF7A9FF1B4835
:404380001B490822FFF7A4FF1A481B490822FFF79FFF1A4A137843F008031370FFF712FF174821460E22FFF793FF10BD00480040E8460040905300007C000048035001401F
:4043C000A0430040025100402C060048C251004034060048F25100403C0600482251004044060048305100404C06004852510040580600486251004060060048224300403C
:40440000B043004008B5134A136823F0010313604FF4A54300E0013B23B10E4A126812F0010FF8D19BB14FF480320B4B1A6000F063FB0A4A137803F0FE03137010321378E0
:4044400003F0FE03137000F05BFB002008BD012008BD00BF10A0004080E100E0A6430040064B1A7842F001021A701B7813F0010F01D1012070470020704700BF04A000402F
:4044800008B500F039FB154A137843F0010313701032137843F00103137000F031FB41F201220F4B1A60FFF7DBFF4FF480320D4B1A600D4A136843F0010313604FF4C6632B
:4044C00000E0013B23B1084A126812F0010FF8D00BB9012008BD002008BD00BFA643004000A0004000E100E010A00040064B1A7802F0FE021A701B7813F0010F01D0012027
:4045000070470020704700BF04A0004010F4004F07D1064B18801B889BB2834203D001207047022070470020704700BF16A0004050B90D4B5A7802F0EF025A705B7813F0BB
:40454000100F0CD001207047074B5A7842F010025A705B7813F0100F03D101207047002070470020704700BF14A0004030B4841EE4B20D2C28D88C1EE4B2052C02D92BBBAD
:40458000012925D1032A25D8824225D88A4225D8164C657805F0F005284360706478E4B284421DD10BB9002000E002204B01DBB29200D2B2134303430C4A13701278D2B245
:4045C0009A420FD001200EE002200CE002200AE0022008E0022006E0022004E0022002E0012000E0002030BC704700BF14A0004050B90D4B1A7802F0EF021A701B7813F04E
:40460000100F0CD001207047074B1A7842F010021A701B7813F0100F03D101207047002070470020704700BF14A0004050B90D4B1A7802F0FE021A701B7813F0010F0CD042
:4046400001207047074B1A7842F001021A701B7813F0010F03D101207047002070470020704700BF14A00040044B18801B889BB2834201D0012070470020704704A000400C
:4046800003785B01214A416841F08011995003785B0199189A5802F07F12436823F080139A4228D183680B610278184B03EB421319698268914220D1C2685A610278134BDD
:4046C00003EB42135969C268914218D14FF0FF329A6102780D4B03EB42139A69B2F1FF3F0FD10022DA610278084B03EB4213DB694BB1012070470120704701207047012035
:404700007047012070470020704700BFA0A0004001780901114A436843F4000343F008038B5003781B0199189B580D4A1A40436823F4000323F008039A420BD183684B60DB
:404740000278064B03EB02135A6883689A4203D001207047012070470020704720A00040F7007F0038B5002409E004EB44039B000E481844FFF7CCFF28B90134E4B2072CF5
:40478000F3D9002500E001254DB10DE0084800EB0410FFF775FF30B90134E4B200E000240F2CF3D900E00125284638BDBC5300001C54000008B500F09FF9324A137843F038
:4047C000010313701032137843F00103137000F097F92D4A137803F0FE0313704FF4A54300E0013B23B1284A127812F0010FF8D1002B3CD04FF48032244B1A60102024490E
:4048000000F0A4F91020072100F0B4F90B20FFF77DFE88B9FFF78CFE80B9062002210A460023FFF7A3FE58B9FFF7E2FE50B9FFF7FDFE48B1012308E0012306E0012304E015
:40484000012302E0012300E0002393B9FFF78AFF88B941F20120FFF707FF70B90A4B00221A701B7813F0010F09D0012008BD012008BD012008BD012008BD012008BD002068
:4048800008BD00BFA643004010A0004080E100E01549000008B5074B1B7813B9FFF78AFF00E0002020B90122024B1A70FFF7E8FD08BD00BFEF8AFF1F08B50222034B5A700D
:4048C000FFF714FEFFF79EFD08BD00BF00A0004038B510220C4B5A700125002410E00B4B1B881D4208D06301094A9B5C13F0200F02D0204600F08CF86D00ADB20134E4B2EE
:404900000F2CECD938BD00BF00A0004008A00040A0A0004008B5074B5B7813F0020F01D0FFF7CAFF034B5B7813F0100F01D0FFF7CFFF08BD00A00040F0B5012200275AE04F
:404940002F4B9B78334249D103790BB14FF40013427932B92B4A02EB041201684905516007E043F48013274A02EB04120168C900516090F806E0BEF1070F02D843EA0E4E69
:4049800001E043F4002EC3790BB14EF0040E00230FE01C4A02EB0411032B02D9C3F10B0201E0C3F103028568ED5C0A4415720133DBB282799A4201D9072BEAD94FF4803125
:4049C000114B196022010F4D4EF4000343F008035351012353510D4B196000227600F6B232B10134E4B201E001260024072CA7D91AB10137FFB2022FF6D91046F0BD00BF60
:404A000008A0004020A0004080E100E000E100E0F0B583B045012F4C05EB040E2B5D13F0010F55D02C4B00221A710122DA712B4A9A609EF8022002F00F029A719EF80230A2
:404A400013F0100F03D0DEF80460F60802E0DEF80460760D20490E609EF80230C3F300134B7100230FE01846032B02D9C3F10B0101E0C3F1030171440F7A02A9014401F84D
:404A8000087C0133DBB29342EDD3002307E002A9194411F8080C1149C8540133DBB29342F5D30F490E8000238B70CA7006E00B49C85C0B49194408710133DBB29342F6D3F4
:404AC00008480749FEF7F0FA2B5D43F001032B5503B0F0BDA0A00040148BFF1F0C8BFF1F488BFF1F0C81FF1F0230800803D000BF01380046FCD17047EFF3108072B670476A
:404B000080F31088704700BF01BE704710B5044605E0084B1868FFF7E7FFA4F50044B4F5004FF6D8034B586800FB04F0FFF7DCFF10BD00BFAC88FF1F08B5034B1B7A03FBEE
:404B400000F0FFF7D1FF08BDAC88FF1F70B504460E46074B1D681F2802D90020FFF7D4FF04F01F04103455F8240045F8246070BD08ED00E038B504460D46072902D900207F
:404B8000FFF7C2FF1F2C02D90020FFF7BDFF04F01F0000F1604000F564406D01EDB2057038BD00BF024A137843F080031370704777640040014B1870704700BF876500407B
:404BC000014B1878704700BF67650040014B1880704700BF4C6A0040014B188880B270478C6A0040014B1880704700BF0C6A004008B501E0FFF7F0FFFFF7E2FF10F0080F7B
:404C0000F8D108BD08B540F2E730FFF7DFFF40F2E730FFF7E7FFFFF76FFF064A137843F010031370FFF76CFFFFF7E2FF0120FFF7C1FF08BD9765004008B5054B1B7823B953
:404C4000FFF7E0FF0122024B1A70FFF7ABFF08BDF08AFF1F044A137803F0FB03800000F0040018431070704700510040024B1878C0F38000704700BF0151004008B5FFF73C
:404C80009FFFFFF7F3FFC043C0B2FFF7E3FF0E4A13680133136052680A2BD4BF00230123002A18BF002323B10022074B1A60FEF78FFE00F03BF860F07F00C043034B1870AB
:404CC000FEF75CFE08BD00BFF48AFF1F1D8AFF1F014B1B681864704708ED00E04001C0B2014B1870704700BF00E400E00122014B1A60704700E100E00122014B1A607047E7
:404D000080E100E008B5FFF7F7FF0448FFF7E0FF0720FFF7E3FFFFF7E9FF08BD7D4C0000014B1870704700BF74640040014B1878704700BF67640040054A137843F001032D
:404D400013701032137843F001031370704700BFA2430040044A137803F0F703C00000F0080018431070704700510040044A137803F0EF03000100F010001843107070479C
:404D80000051004008B500F0CBF800F0D3F808BD08B5FFF7F7FF08BD38B50446FFF7ACFE054600F0F1F804F1804000F500400478E4B200F0F7F82846FFF7A2FE204638BDCF
:404DC00038B504460D4600F0F5F815F0800F48D100F08AF9002846D140202146102200F015F907282FD1214B1B7813F0020FFAD01E4B1B7813F0020F06D01C4B1B789B0867
:404E000005D04FF0FF3403E04FF0FF3400E00024E4B9174B402029461A785B7800F020F9072816D1114B1B7813F0020FFAD00F4B1B7813F0020F0FD00C4B1B789B080DD069
:404E40004FF0FF340AE04FF0FF3407E04FF0FF3404E04FF0FF3401E04FF0FF3400F06AF902E0012400E00424204638BD22470040548BFF1F10B500F09DF800F035F9D0B90E
:404E800000F074F90446072812D102E00120FFF753FE0A4B1B7813F0020FF7D0074B1B7813F0020F04D0054B1B789B0800D1002400F040F900E00424204610BD22470040D7
:404EC00010B500F077F800F00FF910BB012000F0EDF8072818D11048022100F07DF802280AD102E00120FFF727FE0C4B1B7813F0020FF7D0002409E0084B1B7813F0020FEE
:404F0000E9D04FF0FF3401E04FF0FF3400F012F900E00424204610BD548BFF1F2247004008B5FFF7A7FF034610B9FFF7C9FF0346184608BD08B5FFF7DFFD0F4A137843F0DC
:404F4000080313701032137843F008031370C8220A4B1A700A4A137843F0100313701032137843F010031370064B1B7813F0200FFAD0FFF7C5FD08BDA04300400147004006
:404F8000AC43004000470040054A137843F001031370034B1B7813F0020FFAD0704700BF02470040024A137803F0FE03137070470247004008B5FFF79FFD064A137843F0FE
:404FC000080313701032137843F008031370FFF797FD08BDA043004070B506460D4600240CE00120FFF7A8FD064B1B7813F0010FF7D0054B1B7833550134E4B2AC42F3D3EB
:40500000204670BD2247004020470040124B1B7813F0020F19D010B4104BB6241C70D5241C7002241C7002331B7813F0020F0ED10A4B1870002304E0CC5C08480470013325
:405040009BB29342F8D3072002E00420704709205DF8044B704700BF224700402047004030B4104C247814F0020F15D00E4CB6252570D8252570052525700234247814F005
:40508000020F0BD1084C2070080A2070C9B2217022702370072002E0042000E0092030BC704700BF22470040204700400C4B1B7813F0020F0FD00B4BB6221A70E1221A7042
:4050C0000E221A7002331B7813F0020F05D1054B187007207047042070470920704700BF224700402047004010B5FFF705FD0F4B1B78A3B901220D4B1A700D4B1B6813F0DB
:40510000010F0ED00A4A136823F00103136000BF00BF00BF0122054B5A60002402E0042400E00024FFF7ECFC204610BDFC8AFF1F0400084008B5FFF7DFFC0A4B00221A70FC
:405140005B68012B0AD1084A136843F00103136000BF00BF00BF0022024B5A60FFF7D0FC08BD00BFFC8AFF1F04000840074B1B7813F0020F08D0064BB6221A70E0221A7042
:405180000D221A70072070470420704722470040204700400E4B70B51E460E4C0025E41AA410A54204D056F8253098470135F8E700F0B4F9084B094C1E46E41AA410002548
:4051C000A54204D056F8253098470135F8E770BD2855000028550000285500003055000010B50A44441E914208D014F8013F0878834201D0181A10BD0131F4E7002010BDB9
:4052000010B5431E0A44914204D011F8014B03F8014FF8E710BD03460244934202D003F8011BFAE77047000000000000000101010100010000010101010100000000000018
:405240000100010000020000000300000004000000050000800100008002000080030000800400006C88FF1F010000106088FF1F01000110F487FF1F09000310E487FF1F9B
:4052800001000510D887FF1F010006109887FF1F050010105887FF1F050011104887FF1F010014103C87FF1F01001710EC86FF1F05001810BC86FF1F030000126886FF1F66
:4052C000060000181886FF1F06000118C485FF1F060002187085FF1F060003181C85FF1F06000418EC84FF1F0300001ACC84FF1F0200011AAC84FF1F0200021A8C84FF1F49
:405300000200031A6C84FF1F0200041A5484FF1F020000204884FF1F010001203C84FF1F010002203084FF1F010003202484FF1F010004201884FF1F010005200C84FF1F8C
:40534000010006200084FF1F01000720F483FF1F01000820E883FF1F01000920DC83FF1F01000A20D083FF1F01000B20C483FF1F01000C204883FF1F0A0000702C83FF1FC4
:405380000200017001000000000000000000000010510040100040510040100000000140001000140140000800400140000A004C014000020050014020000000000000006E
:4053C000080088000000000001000000080088000000000002000000080088000000000003000000080088000000000004000000080088000000000005000000080088003E
:405400000000000006000000080088000000000007000000080088000000000000000000A8008000FFFFFFFF00000000010000000000000000000000000000000200000018
:40544000000000000000000000000000030000000000000000000000000000000400000000000000000000000000000005000000000000000000000000000000060000001A
:405480000000000000000000000000000700000000000000000000000000000008000000000000000000000000000000090000000000000000000000000000000A000000CA
:4054C0000000000000000000000000000B0000000000000000000000000000000C0000000000000000000000000000000D0000000000000000000000000000000E0000007A
:405500000000000000000000000000000F000000000000000000000000000000F8B500BFF8BC08BC9E4670474D00000019410000F8B500BFF8BC08BC9E467047290000008E
:40554000505500000881FF1FB807000098020000000000001A8AFF1F64520000B882FF1F00000000550D00002083FF1F1483FF1F1283FF1F845300007D35000000000000A2
:4055800000000000000000000000000000000000000000000000000000000000000000000000000000000000000000000000000000000000000000000000000000000000EB
:4055C000000000000000FFFF000000000F00000000000000593400005D34000061340000653400000000000000000000D089FF1FCC89FF1F2C8BFF1FC889FF1FFFFF000026
:40560000710400000F0F0F0F0F0F0F0F0F0F0F0F0F0F0F0F0F0F0F0F0F0F0F0F0F0F0F0F0F0F0F0F0F0F0F0F0F0F0F0F0F0F0000000000000000000000000000000000007F
:40564000000000000000000000000000000000000000000000000000000000000000000000000000000000000000000000000000000000000000000000000000000000002A
:4056800000000000FFFF0000F087FF1FF489FF1F75350000793500007504000079040000000000000000000095350000850700000000000000000000010000000000000017
:4056C000000000000000000000080000188AFF1FF889FF1F198AFF1F5487FF1F00000000000000000000000000000000000000000000000000000000000000004D0200003A
:405700000000FFFFFFFF0000000000000000000000000000FFFFFFFF0000000000000000000000000000FFFFFFFF0000000000000000000000000000FFFFFFFF0000000079
:4057400000000000000000000000FFFFFFFF00000000000000000000000024000A000000000000000F0014000A000000000000000B00100002050000010000004483FF1FCA
:4057800000050000010000001B8AFF1F010000000205000001000000C083FF1F00050000010000002A8BFF1F0005000001000000208BFF1F0005000001000000218BFF1F3E
:4057C0000005000001000000228BFF1F0005000001000000238BFF1F0005000001000000248BFF1F0005000001000000258BFF1F0006000002000000288BFF1F0006000080
:4058000002000000268BFF1F0900000000030000020000007C88FF1F00030000010000001D8AFF1F00060000020000008088FF1F00070000040000008488FF1F0005000036
:40584000010000008888FF1F00010000010000008988FF1F00010000010000008A88FF1F00010000010000008B88FF1F00010000010000008C88FF1F00010000010000002D
:405880008D88FF1F00010000010000008E88FF1F00010000010000008F88FF1F00050000010000001D8AFF1F00050000010000001C8AFF1F00050000010000008884FF1F83
:4058C00000070000040000008484FF1F10000C20010000000005000001000000A884FF1F0007000004000000A484FF1F10000C20010000000005000001000000C884FF1FEC
:405900000007000004000000C484FF1F10000B20010000000005000001000000E884FF1F0007000004000000E484FF1F10000A200100000000050000010000001885FF1F9D
:4059400000070000040000001085FF1F00070000040000001485FF1F08000020080100200200000002050000010000006C85FF1F00070000040000006885FF1F0005000022
:40598000010000006485FF1F0006000002000000B089FF1F0005000001000000AE89FF1F0006000002000000AC89FF1FFD00000001040000050000000205000001000000BB
:4059C000C085FF1F0007000004000000BC85FF1F0005000001000000B885FF1F0006000002000000B689FF1F0005000001000000B489FF1F0006000002000000B289FF1F52
:405A0000FC000000800400000500000002050000010000001486FF1F00070000040000001086FF1F0005000001000000BC89FF1F0006000002000000BA89FF1F000500008B
:405A400001000000B889FF1F00060000020000000C86FF1F30000000800300000500000002050000010000006486FF1F00070000040000006086FF1F000500000100000031
:405A8000C489FF1F0006000002000000C289FF1F0005000001000000C089FF1F0006000002000000BE89FF1F80020000050000000205000001000000B886FF1F000700003E
:405AC00004000000B486FF1F0405000001000000B286FF1F0406000002000000C689FF1F0005000001000000C589FF1F0006000002000000B086FF1F1000FF008001000013
:405B0000050000000205000001000000E886FF1F0207000004000000E486FF1F0207000004000000E086FF1F80050000000600000200000002050000010000003887FF1F34
:405B400002070000040000003487FF1F02070000040000003087FF1F02070000040000002C87FF1F02070000040000002887FF1F12907856341290785634129078563412A7
:405B8000040000000006000002000000C889FF1F00070000040000005487FF1F8000000002050000010000009487FF1F0007000004000000E089FF1F000700000400000008
:405BC000DC89FF1F0007000004000000D889FF1F0007000004000000D489FF1F040000000205000001000000D487FF1F0007000004000000F089FF1F0007000004000000E0
:405C0000EC89FF1F0007000004000000E889FF1F0007000004000000E489FF1F040000000007000004000000F489FF1F0007000004000000F087FF1F80000000009F000038
:405C400001000000188AFF1F0207000004000000F889FF1F0207000004000000FC89FF1F0207000004000000008AFF1F0207000004000000048AFF1F02070000040000008C
:405C8000088AFF1F02070000040000000C8AFF1F0207000004000000108AFF1F0207000004000000148AFF1F0205000001000000198AFF1F02070000040000007888FF1FF1
:405CC0002D010000D204AA0011000000100000000908070605040302FFFF0000FFFF000070110100FFFF00000102040810200101040000000000E880D0010100420000006C
:405D00008014EF03000000000000000000000000000000000000000000000000000000000000000000000000000000000000000000000000000000000000000000000000DD
:405D40000000000000000000000000000000000000000000000000000000000000000000000000000000000000000000000000000000000000000000000000000000000023
:405D800000000000000000000000000000000000000000000000000000000000000000000000000000000000000000000000000000000000000000000000000000000000E3
:405DC00000000000000000000000000000000000000000000000000000000000000000000000000000000000000000000000000000000000000000000000000000000000A3
:405E00000000000000000000000000000000000000000000000000000000000000000000000000000000000000000000000000000000000000000000000000000000000062
:020000040003F7
:0200000480007A
:400000000752004002640040026500400503014039040140420501404F0601404C07014003090140020B0140030D0140521401404D1501405F1601404A1701400119014078
:40004000011B0140034001400441014001420140034301400A4401401045014010460140084701400348014008490140024C01400C4D01400850014001510140100111012C
:4000800018A01920300A310C7810850F86388672870D824083409806B006E601040305010B010C02140315011F01220123013003310138023E013F014031410245EE46C0EC
:4000C000470B481B49FF4AFF4BFF4EF04F44500C5608580459045A045B045D925F0166C06A406B0281108703891C8B028F049104951F9918A107A318A508A91CAB01B51FB4
:40010000BB28D401D904DB04DC20DD20DF010084020109081080184023402420251026142A012C202E21308031083340340136043720381439203D283E424004410843405A
:4001400049024B0450085110580659205A805C105D025F4861A062026320680169046A127040720473107A227B1181A58601871088018A048C4092809806A740C005C204B5
:40018000C408CAE1CCEACEF6D00ED6FFD80FE008E402040C080F0C081002140C160318041C031E0C1F012003240F27012A032C01360F37013A803F405418560458045904CE
:4001C0005B045C025D205F01840C8513867187E489038B048CDC8E228F8092039410951396AC976C9C109E409F35A220A409A6D0A814ABC8ADCAAF34B01FB1F0B30FB4E0E1
:40020000BA20BB0AC004C604C9FFCA07CBFFCC40CD20CEF0CF05D008D280D804D904DA04DB04DC22DD12DF01E040E1A8E240E3200084030204200602072009880A800C2144
:400240000E21108812101482162818041A801E012080210827012A102B0A2F20308031083680388439203D083E08404046404701488050405180584059055A105F02622044
:4002800063226641670873408201871290609120922093049404964199059C019E229F28A008A234A301A4E0A50CA740AA10AD20B104B610C0E5C2FDC4FECA4CCC1ACE0E7B
:4002C000D001D68FD8BEEE06E820EC10EE06E088E432E601EA20EE80060108060A010C04140616011807240228062C012E0634073A20560858045B045C025D905F01800358
:40030000810484058507864889068A038B018C038E208F08940C9701980399079E03A00AA254A308A502A603A80CA906AD01AF06B010B20CB403B508B660B707BE40BF10D1
:40034000C056C102C204C401C6CEC80CC9FFCAFFCBFFCC62CDA0CEF0CF41D00CD608D804D904DA04DB04DC22DD92DF01E640E702E910EA30EB10ED10EE10EF12012402012F
:4003800004420514080409200C800D200E10102A150416801714180819301D841E401F102404268027012C282D802F8032083304361838043B083E2A3F8045A046084701A1
:4003C0004C034D804E09576059405A285D406009632064016680854088CC8C028D44904091C0923A94099640972898049A239B109C43A028A120A218A380A680A730A9401E
:40040000C0F7C2E6C477CAF0CC60CEF0D0B0D230D61ED81EE618041005020608080709010C010E0610041101120114101608181819011C1828072C022E013007321033017F
:400440003502360838803E043F10405449FF4AFF4BFF4F01501856025711580459045A045B045C225D215F016040624064406540668068806A806C806E8084028E028F0142
:400480009201930194029D02A004AE01B206B301B601B702B808BE40BF40C054C5ECC720C823C9FFCAFFCBFFCD83CE03CF01D018D401D604D804D904DA04DB04DC12DD1128
:4004C000DF01E040E240E440E540E680E880EA80EC80EE800084044806200704090A0A030C050D200E29108013401402171019801B081C501F8020202140250426082708DB
:400500003102324037113B403E103F044102450249054B404F40510259855C1063806E106F157428760377207CC08810900492A993449401964097289CC39E229F28A0C0B8
:40054000A108A214A420A504A680A778A801AA10AE04C0E5C2FCC4C9CCA9CE68D081D218D62BD801E680EE08EE08E60830803710CC3080809F10A480E2209F1083109F10AC
:40058000E22008041410508054405B205F40C208C404D407D6040140060209010A080E805401810197409F20A4C0B014C003C20ED604EA04EE01502057088480874088410F
:4005C0008F209140920897409A029F20A240A4C1D406E001E40C92089A02A940AE40B308B420E804EC0805108901C0805D0166048E049101A910D680D880EC209A02AE04B5
:4006000005021820501078088602880889029A02C004C608D404DE02000601010A060B01100611011A061B01000F0000001C1C0000000000200000000000000008303000BB
:40064000300000007C01010001000000200000A0A000A000000000000201010001000000100F0F000F00000000000000000000000000000000000000000000000000000089
:40068000000000000000000000000000000000000000000000000000000000000000000000000000000000000000000000000000000000000000000000000000000000003A
:4006C00000000000000000000000000000000000000000000000000000000000000000000000000000000000000000000000000000000000000000000000000000000000FA
:4007000000000000000000000000000000000000000000000000000000000000000000000000000000000000000000000000000000000000000000000000000000000000B9
:400740000000000000000000000000000000000000000000000000000000000000000000000000000000000000000000000000000000000000000000000000000000000079
:0200000490006A
:0400000000004005B7
:0200000490105A
:04000000BC90ACAF55
:0200000490303A
:020000007A4242
:0200000490402A
:4000000000000000000000000000000000000000000000000000000000000000000000000000000000000000000000000000000000000000000000000000000000000000C0
:400040000000000000000000000000000000000000000000000000000000000000000000000000000000000000000000000000000000000000000000000000000000000080
:400080000000000000000000000000000000000000000000000000000000000000000000000000000000000000000000000000000000000000000000000000000000000040
:4000C0000000000000000000000000000000000000000000000000000000000000000000000000000000000000000000000000000000000000000000000000000000000000
:0200000490501A
:0C00000000012E16306900012E3AAAAB58
:00000001FF